:020000040040BA
:10000000102700200522400001224000012240006C
:1000100001224000012240000122400000000000B7
:10002000000000000000000000000000012240006D
:100030000122400000000000012240000122400097
:100040000122400001224000012240000122400024
:100050000122400001224000012240000000000077
:100060000122400001224000000000000122400067
:100070000122400000000000012240000122400057
:1000800000000000000000000122400001224000AA
:1000900001224000012240000122400001224000D4
:1000A000012240000122400000000000000000008A
:1000B0000000000001224000012240000122400017
:1000C0000122400001224000012240000348044B6D
:1000D000834202D0034B03B118477047D82F40002A
:1000E000D82F4000000000000548064B1B1AD90F0E
:1000F00001EBA301491002D0034B03B1184770472D
:10010000D82F4000D82F40000000000010B5064C4A
:10011000237843B9FFF7DAFF044B13B10448AFF378
:1001200000800123237010BD580000200000000053
:10013000D82F400008B5044B1BB104490448AFF365
:100140000080BDE80840CFE7000000005C00002010
:10015000D82F400010B514461A460A4B1B7873B1CD
:100160006AB193420BD35C438C4208D2091B8A428A
:1001700005D80299044B20449847002010BD042064
:10018000FCE700BF000000206529400013B5044CC7
:100190000093044813460A462021A04702B010BD30
:1001A000550140009A07002013B5054C00930548FF
:1001B00013460A464FF44071A04702B010BD00BF7D
:1001C00055014000BA07002013B5054C00930548BF
:1001D00013460A464FF4CC61A04702B010BD00BFE1
:1001E00055014000BA0A002010B5084C0849094BD7
:1001F0004FF4487204F54070984704F5C460044910
:10020000054BBDE810404FF448721847BA0A002069
:100210001A11002065294000C91E400013B5074C83
:100220000093074813460A464FF44871A047044616
:1002300008B9044B9847204602B010BD5501400054
:100240001A110020E9014000012A10B513D11C78D1
:100250000A4B20469847102C4FF0000303D1084A60
:100260001370002010BD0F2C01D1064AF8E70E2CA8
:10027000F7D1054AF4E70420F4E700BF4B2540001E
:10028000760000207500002074000020012A10B5BF
:1002900030D11C78102C0ED1174B1B78DBB2C3B1B8
:1002A000164B20469847102C4FF000030BD1124AF2
:1002B0001370002010BD0F2C01D1114BEDE70E2C57
:1002C00007D1104BE9E70F2C01D10D4AF0E70D4A99
:1002D000EEE70D4B20469847102C03D1064B012228
:1002E0001A70E6E70F2C01D1054BF8E70E2CE0D190
:1002F000044BF4E70420DDE7760000204B254000A6
:10030000750000207400002033254000012A38B514
:10031000144611D11D78094B28469847102D03D15A
:10032000074B1C70002038BD0F2D01D1054BF8E79D
:100330000E2DF7D1044BF4E70420F4E733254000F9
:1003400076000020750000207400002038B50D46AE
:1003500009499DF81040097861B15CB94B4393425B
:1003600008D2D21A914228BFD1B2EA18034B98475B
:10037000204638BD0424FBE7000000202D2040006B
:1003800013B50B4600920349034C20227320A0476B
:1003900002B010BD9A0700204D03400013B50B4674
:1003A00000920449044C4FF440726320A04702B00D
:1003B00010BD00BFBA0700204D03400013B50B4627
:1003C00000920449044C4FF448727020A04702B0D8
:1003D00010BD00BF1A1100204D03400013B50B469D
:1003E00000920449044C4FF4CC626B20A04702B049
:1003F00010BD00BFBA0A00204D034000022A07D1F9
:100400001B885A1EF72A03D8024A0020137070472F
:10041000042070470000002070B5BAB90C4B0D4E97
:10042000984704244FF4CC6200210B480B4DB04791
:10043000013C0B49084801234FF4CC62A84714F053
:10044000FF04EFD1074B9847204670BD0424FBE71B
:10045000F5234000C12840007A000020850C4000B0
:10046000BA0A0020D523400007292DE9F8430E469B
:1004700015461C4610D8CC2A4FD12948194602FBF4
:100480000600284B98470123274AB34011780B43B5
:1004900013700020BDE8F883A1F11007FFB2032F0D
:1004A0001AD8C82A39D12148DFF8788002FB07F929
:1004B00019464844C0471E4B1E481A780126BE40C4
:1004C0001643F6B22A46214648441E70C0470F2EF6
:1004D000DFD1194B9847DCE7A1F12007FFB2032FCA
:1004E0000BD8C02A19D11548194602FB07000D4B3D
:1004F00098470123124ABB40C8E730290BD1202A74
:100500000BD1104B04F1200254F8041B43F8041BD8
:100510009442F9D1BDE70120BCE70420BAE700BF4F
:10052000BA0A002065294000790000201A11002035
:1005300078000020BA0D0020E9014000BA07002031
:10054000770000209A0700201C4A1D491D4B1E48B9
:1005500010B598471C4B1D4A03F1200153F8040BBA
:1005600042F8040B8B42F9D1194B1A4A03F12001CE
:1005700053F8040B42F8040B8B42F9D11349164887
:10058000164B402298470E49154B4FF440720846CF
:1005900098470B4A1349144B044614489847144B88
:1005A0009847C4F101030C491048124C2022DBB2D9
:1005B000A047114B9847002010BD00BFBA0A002089
:1005C000BA07002045074000DA0600203A0700205D
:1005D000DA1000205A070020FA060020111F400000
:1005E000650C4000FA100020150C40007A0700202E
:1005F000F5234000850C4000D523400008B5114686
:100600004AB9064B1046984705490648064B202232
:100610009847C0B208BD0420FCE700BF4905400070
:100620007A0700209A070020650C400008B52E4B81
:100630002E4C98474FF040511020A0474FF04051AA
:100640000F20A0474FF040510E20A047284B294CC7
:100650009847294B9847294B9847294ACC21012094
:10066000A047284AF8210220A047274A002103205A
:10067000A047264A02210420A047254AF821052048
:10068000A047244A00210620A047234AF82107203A
:10069000A047224A00210820A047214AF82109202A
:1006A000A047204A00210A20A0471F4A00210B2012
:1006B000A0471E4A00210C20A0471D4A01216820A6
:1006C000A0471C4A01216C20A0471B4A012174202D
:1006D000A0471A4C0F20A0471020A0470E20A0478B
:1006E000174CA047FDE700BF812240006525400070
:1006F00019234000C51F4000B523400005204000DD
:1007000069044000C9014000DD034000FD034000D2
:100710001D024000BD034000A90140009D034000B0
:100720008D01400081034000FD0540001904400098
:100730000D034000490240008D0240004B2540005F
:10074000FD20400070B5ADF5406D04460E460DF538
:100750008060154B1546984706F520716846134B87
:10076000984729460DF50060114B98470DF58060BC
:10077000104B98470DF580620DF5006180A80E4B77
:10078000984780A80D4B984780AA104669460C4BA5
:10079000984780A80B4B98470B4B80A92046984759
:1007A0000DF5406D70BD00BFDD0A400069094000D5
:1007B000610B4000810B4000990B4000190A40007A
:1007C000C10A40006D0A4000D10940002DE9F04FF8
:1007D000064685B04FF007094FF0010880251F4BF2
:1007E00003EB48026B1C0024009305EB040A32F96A
:1007F000021B08F1010806EB4A0306EB4407A34677
:10080000B3F9000002934843154B039201919847B6
:10081000B7F900C0029B0199039A80B2ACEB000CBF
:1008200023F802CB37F802CB0BF1010B6044D34520
:1008300027F8020CE4D3611C6B1E8A4538BF0023E5
:1008400000990C441C44FF2CCFD9B9F101094FEA9F
:100850005505C4D105B0BDE8F08F00BFF02D4000B4
:10086000D90B40002DE9F04F044685B04FF0070941
:100870004FF07F080227234B002503EB480232F993
:100880000239019305EB070A08F1FF3804EB450B29
:1008900004EB4A06554518D307EB0A05FF2DEED9A0
:1008A000B9F101094FEA4707E5D1174EA51E40F2FD
:1008B000A15704F5FF7435F9020F7843B047A542FC
:1008C0002880F8D105B0BDE8F08FBBF80010B6F96C
:1008D00000000E4B0392084400B2029198472BF897
:1008E000020B029936F8020B019B401A00B226F85F
:1008F000020C5843044B98470135039A26F8020C22
:10090000C8E700BFF02D4000D90B4000F50B4000B8
:100910002DE9F0410446984648885388114F10FB52
:1009200003F00E461546B847208000FB08F0B84794
:1009300020802B88308810FB03F0B84723881844A8
:1009400020806B88308810FB03F0B84760802B88CC
:10095000708810FB03F0B847638818446080BDE8D6
:10096000F08100BFD90B400070B50139002240F67C
:1009700001550824861C11F8013F03F00F0313FBF7
:1009800005431B1120F822300B781B0913FB05438C
:100990001B1126F822300132802AECD170BD30B50F
:1009A0000023841C4D780A7842EA0522C2F30B0228
:1009B00020F823208A784D78120142EA151224F893
:1009C00023200133802B01F10301EBD130BD000066
:1009D000F0B5DFF840C0002401382746002200F8B7
:1009E000017F01EB4406154636F9023B5B0003F23A
:1009F00081630CFB03F3C3F30073AB401A4301356F
:100A0000D2B2082D0270EFD10834B4F5807FE5D161
:100A1000F0BD00BFFB3A0100004B184765084000DD
:100A20002DE9F0470F4FDFF84090061D0D1D141DF6
:100A300007F1800A37F9028F221F291F301F434612
:100A4000C847C8F100032246294630461BB2C847B2
:100A5000574506F1080605F1080504F10804E9D137
:100A6000BDE8F0876E2E40001109400070B5054EBC
:100A7000851E00F5FF7435F9020FB047A5422880A6
:100A8000F9D170BDF50B400010B5044B04469847F2
:100A90002046034BBDE81040184700BFCD0740007B
:100AA0006D0A400030B5002331F8134032F813507E
:100AB0002C4420F813400133B3F5807FF4D130BDCE
:100AC00030B5002331F8134032F81350641B20F87E
:100AD00013400133B3F5807FF4D130BD2DE9F341EC
:100AE000002440F6015804EB84030B4400EBC406D9
:100AF000002593F802C05F781A88ADF800204FEA0D
:100B00008C1242EA9702ADF80220DA78170147EA20
:100B10001C17ADF804701F79920942EA8702ADF8FC
:100B200006200533EE46B44600273EF8022BC2F3FA
:100B3000090208FB02F202F500720137920A042F43
:100B40002CF8022BF1D10435B5F5807F06F10806AB
:100B5000CFD10CB94024C6E702B0BDE8F081000057
:100B600070B5064E04460D46B04705F5C07104F554
:100B700000703346BDE87040184700BF9F09400031
:100B800070B5044D0446A84704F500702B46BDE837
:100B900070401847890A4000F0B50C4FADF5017D53
:100BA0000D4616460446B84706F5007205F5007175
:100BB0006846B8476A4621462046054B9847054B8C
:100BC000204698470DF5017DF0BD00BF210A400089
:100BD000A50A40006D0A400000EB400303EBC3038D
:100BE00003EBC30300EB03234FF2FF2213FB0200CE
:100BF000001470474FF0007244F6BF6310FB0323EC
:100C00009B1603EB430203EB820203EB0223C01AA1
:100C100000B2704773B50E4B04460E4601A8154648
:100C20009847314601A80B4E2022B04729464FF481
:100C3000407201A8B04701A8074B984701AA20219C
:100C40002046064B9847064B01A8984702B070BD56
:100C5000591E4000811E4000991E4000A91E400000
:100C6000BD1E4000002370B51C46944204D15B4277
:100C700060EB0000C00F70BD055D0E5D75402B433D
:100C80000134F2E730B55B42DBB2013902449042F5
:100C900000D130BD057811F8014F6C401C40654013
:100CA00000F8015BF3E700002DE9F04FBDB00368E9
:100CB0000A9343680B9383680C93C3680D9303698D
:100CC0000E9343690F9383691093C3691193036A69
:100CD0001293436A1393836A1493C36A1593036B45
:100CE0001693436B1793836B1893C36B1993036C21
:100CF0001A93436C1B93836C1C93C36C1D93036DFD
:100D00001E93436D1F93836D2093C36D2193036ED8
:100D10002293436E2393836E2493C36E2593036FB4
:100D20002693436F2793836F2893C36F2993D0F83B
:100D300080302A93D0F884302B93D0F888302C93CD
:100D4000D0F88C302D93D0F890302E93D0F894308A
:100D50002F93D0F898303093D0F89C303193D0F85E
:100D6000A0303293D0F8A4303393D0F8A830349325
:100D7000D0F8AC303593D0F8B0303693D0F8B430EA
:100D80003793D0F8B8303893D0F8BC303993D0F8D6
:100D9000C030034A3A93D0F8C430009202E000BF5A
:100DA000F02E40000A9A149982EA010615990B9ACE
:100DB0004A401E994E401F994A4028994E40299911
:100DC0004A4032994E4033994A40089216990C9AFB
:100DD00082EA01090D9A179982EA0108209A189966
:100DE00089EA0209219A88EA02082A9A89EA02090C
:100DF0002B9A88EA0208349A89EA0209359A88EA25
:100E000002080E9A82EA010C0F9A199982EA0107E8
:100E1000229A23998CEA020C4F402C9A2D998CEA45
:100E2000020C4F40369A37998CEA020C4F40109AC8
:100E30001A9982EA0105119A1B9982EA0104249900
:100E4000129A4D4025994C402E994D402F994C4077
:100E500038994D4039994C401C9982EA010E139AF9
:100E60001D995140269A8EEA020E279A5140309AD7
:100E70008EEA020E319A51403A9A4FEA490B8EEAB5
:100E8000020E4BEAD87B4FEA480A59408BEA0E0221
:100E90004AEAD97A4FEA4C0B01924BEAD77B8AEAAD
:100EA000010202928BEA06024FEA470A0392089A6D
:100EB0004AEADC7A8AEA02024FEA440A4AEAD57A26
:100EC00004928AEA08024FEA4E0848EAD1784900BB
:100ED00041EADE71059288EA0C02069281EA070275
:100EE0000792089A710041EAD271520042EAD67222
:100EF000694062404FEA450B089109920A99019AAC
:100F00004BEAD47B8BEA090B82EA0109029A0B991E
:100F1000179C239E2F9F82EA010A039A169951403B
:100F2000049A0D0D624045EA0235120D42EA013283
:100F30002299059C8BEA010174404FEA515848EA16
:100F4000C428640D44EAC1242E9E06994E40079998
:100F50004FEA465E79404EEAD12E49053A9F41EA72
:100F6000D621089E7E40099F4FEA863C7B404CEA92
:100F7000934C9B0343EA9643009ED6E900768AEAA7
:100F800006060B9689EA070728EA05067E400B9FAE
:100F90000A9624EA0206774021EA04065640239680
:100FA00023EA0106744022EA0A020B972EEA080798
:100FB0006F403B942AEA0304534029EA0C0661403F
:100FC00025EA0905109A22972F932CEA0E07069B13
:100FD000179187EA080785EA0C0186EA0E06534056
:100FE0003A9716962E91079A11991D9C1F9D2B9F3B
:100FF00051404FEA037C4CEA111C090741EA1311E6
:101000001C9A089B5A40099B1605634046EA133612
:101010001B051E9C43EA1233019A6240029C4FEA70
:10102000C208654048EA5578ED002A9C45EA5275A9
:10103000039A6240049C4FEAD24E7C404EEA443E02
:10104000E40C44EA4234369A379F8BEA0209059A47
:101050007A404FEAD90747EA4277D20842EA497212
:1010600025EA030989EA0109CDF8AC9024EA0509CB
:1010700028EA060A89EA03098AEA0C0ACDF84490AC
:1010800023EA010322EA040989EA05055340CDF861
:10109000A8A02EEA080A8AEA060A1F9526EA0C0684
:1010A00021EA02051D930C9A039BCDF840A086EA25
:1010B000070127EA0E0A53401C91049A0D998AEA07
:1010C00008085140CDF878802CEA07084FEA430C15
:1010D0004CEAD17C490041EAD371189B88EA0E0E94
:1010E0006C408BEA0302CDF8D8E03794059B199C3D
:1010F000259D319F6340960146EA93669B01249C9F
:1011000043EA9263069A6240079C4FEA4268654050
:1011100048EAD5186D06309C45EAD215089A624017
:10112000099C4FEA022E7C404EEA146E2402329F44
:1011300044EA1264019A82EA0709339F029A7A40CC
:101140004FEA894747EA9237920442EA993225EA00
:10115000030989EA0109CDF8649024EA050928EA1F
:10116000060A89EA03098AEA0C0ACDF8C49023EA40
:10117000010322EA040989EA05055340CDF860A07D
:101180002EEA080A8AEA060A0D9526EA0C0621EAE2
:1011900002053393129A089BCDF8C0A086EA070196
:1011A00027EA0E0A53403291099A13998AEA0808ED
:1011B0005140CDF830802CEA07084FEAC36C4CEA66
:1011C000511CC90641EA5311149A019B6C405A40C4
:1011D0002594029B159C160F634046EA031688EA85
:1011E0000E0E1B0F43EA0213CDF890E0039A209CE9
:1011F000219D2D9F6240049C4FEA8228654048EA69
:101200009558AD0245EA92552C9A059C8BEA02024C
:101210007C404FEAC23E4EEA544EE403389F44EA13
:101220005244069A82EA0709399F079A7A404FEAA0
:10123000192747EA0267120A42EA096225EA030906
:1012400089EA010928EA060ACDF8E49024EA0509AA
:101250008AEA0C0A89EA0309CDF8E0A0CDF8549097
:101260002EEA080A22EA040923EA01038AEA060AA6
:1012700089EA050526EA0C0653402D95219321EABB
:1012800002050E9B059ACDF850A086EA0701209131
:101290000F99269E8BEA03036C4013949D0882EA03
:1012A000010445EA8475A40844EA83741A9A069BEB
:1012B00083EA02011B9A079B53404A0A42EAC3523F
:1012C0005B0A27EA0E0A43EAC15308998AEA08082A
:1012D0007140CDF8B080099E2CEA0708279F4FEA9D
:1012E000516C77404CEAC71C88EA0E0E7F0E47EA25
:1012F000C117CDF848E00199289EDDF8A4E07140BF
:10130000029E4FEAD15886EA0E0648EA4628F60DB4
:10131000DDF8D0E046EA4126039981EA0E09DDF8BE
:10132000D4E0049981EA0E014FEA890E4EEA917EDB
:10133000890041EA997127EA03092CEA020A89EA3D
:1013400004098AEA050ACDF89C9026EA0709CDF837
:1013500098A089EA030928EA0C0A8AEA020ACDF869
:10136000D49022EA050221EA060923EA040389EA65
:10137000070782EA0E024B401B970E9224EA0107F0
:101380002A9A0F930A9B1899CDF8D0A07E402996EF
:1013900083EA02062B9A0B9B4E40199953404B400F
:1013A0003899229A4E4039994B4026994E402799B8
:1013B0002EEA080A4B4010998AEA0C0C82EA0109CD
:1013C000CDF868C01199239A25EA0E0C8CEA080C16
:1013D000CDF8A0C082EA0108309A1E9989EA020974
:1013E000319A88EA0208149A89EA0209159A88EA69
:1013F0000208349A89EA0209359A88EA02083A9A78
:1014000082EA010C3B9A1F9982EA01070C9A0D9916
:101410008CEA020C4F402C9A2D998CEA020C4F401A
:101420001A9A1B998CEA020C4F40169A369982EA56
:101430000105179A379982EA010424991C9A4D40B4
:1014400025994C4012994D4013994C4028994D4094
:1014500029994C40329982EA010E1D9A33995140E4
:101460002E9A8EEA020E2F9A5140209A8EEA020E90
:10147000219A51400E9A4FEA490B8EEA020E0F9ABA
:101480004BEAD87B4FEA480A51404AEAD97A8BEABC
:101490000E024FEA4C0B01924BEAD77B8AEA01021B
:1014A0004FEA470A02924AEADC7A8BEA0602039282
:1014B0008AEA03024FEA440A4AEAD57A04928AEA9F
:1014C00008024FEA4E0848EAD1784900059241EAFD
:1014D000DE7188EA0C02069281EA0702710041EA95
:1014E000D3715B0043EAD6730792634081EA050239
:1014F00008920993019A0A9B099F4FEA450B4BEA10
:10150000D47B8BEA090B83EA02090B9B029A059CA8
:1015100083EA020A109B039A83EA0201049A119B50
:101520000D0D53400C9A45EA03351B0D43EA013378
:1015300082EA0B010D9A4FEA5158544048EAC428F8
:10154000640D44EAC124129A069982EA0106139AAC
:1015500007994FEA465E51404EEAD12E490541EACD
:10156000D621089A0E9E56400F9A4FEA863C7A4042
:101570004CEA924C920342EA9642009ED6E90276E9
:101580008AEA06060B9689EA070728EA05067E40DE
:101590000B9F0A9624EA0306774021EA04065E4080
:1015A0000D9622EA0106744023EA0A0353400B9782
:1015B0000F942EEA08072AEA02046F40069A139352
:1015C000614025EA0905169B119185EA0C015340FB
:1015D0001291179A07990C9729EA0C062CEA0E0724
:1015E00051404FEA037C4CEA111C090741EA1311F0
:1015F000089A1C9B099C029D5A401D9B86EA0E0678
:1016000063401096160546EA13361B0543EA12336B
:10161000019C189A6240199C87EA080765404FEAC6
:10162000C20848EA5578ED0045EA5275039C149AC1
:101630000E976240049F159C4FEAD24E7C404EEAC2
:10164000443EE40C44EA42341A9A82EA0B091B9A9B
:10165000059F7A404FEAD90747EA4277D20842EA23
:10166000497225EA030989EA0109CDF8549024EA70
:10167000050928EA060A89EA03098AEA0C0ACDF86C
:101680005C9023EA010322EA040989EA0505534034
:10169000CDF850A02EEA080A8AEA060A199526EA29
:1016A0000C0621EA02051D93039A229BCDF858A04F
:1016B00086EA070127EA0E0A53401C91239A0499EF
:1016C0008AEA08085140CDF860802CEA07084FEA02
:1016D000430C4CEAD17C490041EAD3711E9B099F1F
:1016E0006C4083EA0B021B941F9B059C079D634083
:1016F000960146EA93669B0143EA9263069C249A0C
:101700006240259C88EA0E0E65404FEA426848EA2E
:10171000D5186D0645EAD215089C209ACDF868E0E8
:101720006240219C4FEA022E7C404EEA146E240255
:1017300044EA1264019F269A82EA0709029F279AC7
:101740007A404FEA894747EA9237920442EA99324F
:1017500028EA060A25EA03098AEA0C0A89EA010945
:10176000CDF878A0CDF87C9024EA050989EA030930
:10177000CDF8849023EA010322EA04092EEA080A3C
:1017800089EA050553408AEA060A239526EA0C06EB
:1017900021EA02052793089A2E9BCDF880A086EABD
:1017A000070127EA0E0A534026912F9A09998AEADF
:1017B00008085140CDF888802CEA07084FEAC36C2E
:1017C0004CEA511CC90641EA5311019A2A9B059F14
:1017D0006C405A4025942B9B029C049D6340160F3D
:1017E00046EA03161B0F43EA0213039C309A624039
:1017F000319C88EA0E0E65404FEA822848EA9558E7
:10180000AD0245EA92552C9A2D9CCDF890E082EAE3
:101810000B027C404FEAC23E4EEA544EE40344EAD7
:101820005244069F289A82EA0709299A079F7A401C
:101830004FEA192747EA0267120A42EA096228EAD0
:10184000060A25EA03098AEA0C0A89EA0109CDF8A1
:10185000A0A0CDF8A4902EEA080A24EA05098AEA95
:10186000060A89EA0309CDF8A8A0CDF8AC9027EACA
:101870000E0A22EA040923EA01038AEA080889EA2F
:10188000050526EA0C065340CDF8B0802D9521EAD7
:101890000205319386EA07013A9B3B9A30910599FC
:1018A00083EA0B032CEA070851404FEA930C4CEAF9
:1018B000817C890841EA8371069A369B029F6C40BD
:1018C0005A402F94379B079C099D6340560A46EA6D
:1018D000C3565B0A43EAC253089C329A6240339C67
:1018E00088EA0E0E65404FEA526848EAC5186D0E48
:1018F00045EAC215019C389ACDF8B8E06240399C9F
:101900004FEAD25E7C404EEA442EE40D44EA422483
:10191000039F349A82EA0709359A049F7A404FEA76
:10192000890747EA9277920042EA997228EA060A02
:1019300025EA030989EA01098AEA0C0ACDF8C8A058
:10194000CDF8CC902EEA080A24EA05098AEA060AAC
:1019500089EA0309CDF8D0A0CDF8D49027EA0E0A81
:1019600022EA04098AEA080889EA0505CDF8D88040
:1019700037952CEA070821EA020526EA0C0623EA35
:10198000010388EA0E0E86EA07016C403A91CDF811
:10199000E0E039945340009A1032009200993C4A9A
:1019A0008A427FF4FFA90A9A02600B9A42600C9A5D
:1019B00082600D9AC2600E9A02610F9A4261109A7B
:1019C0008261119AC261129A0262139A4262149A57
:1019D0008262159AC262169A0263179A4263189A33
:1019E0008263199AC2631A9A02641B9A42641C9A0F
:1019F00082641D9AC2641E9A02651F9A4265209AEB
:101A00008265219AC265229A0266239A4266249AC6
:101A10008266259AC266269A0267279A4267289AA2
:101A20008267299AC2672A9AC0F880202B9AC0F848
:101A300084202C9AC0F888202D9AC0F88C202E9AE9
:101A4000C0F890202F9AC0F89420309AC0F89820BF
:101A5000319AC0F89C20329AC0F8A020339AC0F87E
:101A6000A420349AC0F8A820359AC0F8AC20369A41
:101A7000C0F8B020379AC0F8B4203A9AC0F8B8E05D
:101A8000C0F8BC40C0E930233DB0BDE8F08F00BFD6
:101A9000B02F40002DE9F84F05460C4690461E46F3
:101AA00023F007090CB9BDE8F88F124B4046984760
:101AB000A8F10800002350F808BFD0F804A005EBF7
:101AC000030E0022C2F1200CA2F120072BFA02F132
:101AD0000AFA0CFC41EA0C012AFA07F708323943EA
:101AE000402A0EF8011BEDD108334B45E3D13544B4
:101AF000013CD7E7A90C400010B5054BC8220021D6
:101B00000446984700220023C4E9322310BD00BFD9
:101B1000C12840002DE9F84FDFF8F49088461546BB
:101B20001C4600260027D0E93223A21843F1000307
:101B3000424573F1000340D2002217469442D0E997
:101B400032313CD8E41841F10001C0E93241BDE82E
:101B5000F88FCB1842F100024FEAD30C03F00703D1
:101B60004CEA427CDB006A5C00EBCC0EA3F1200A5D
:101B7000C3F1200B22FA0BFB02FA0AFA4AEA0B0A1B
:101B800002FA03FB50F83C20DEF8043082EA0B0234
:101B900083EA0A0340F83C200131CEF80430D0E952
:101BA0003232A8EB030C8C45D3D8A3EB0803C0E971
:101BB00032671C446544C847B5E70021EFE7D318F6
:101BC00047EB0101DE0803F0070315F802E046EADF
:101BD0004176DB0000EBC60CA3F12001C3F1200825
:101BE0002EFA08F80EFA01F141EA08010EFA03FE96
:101BF00050F83680DCF8043088EA0E0E4B40013293
:101C000040F836E047F10007CCF8043096E700BF13
:101C1000A90C4000F0B5D0E93235DC0803F0070329
:101C2000DB0044EA4574C3F12006A3F1200522FA43
:101C300006F600EBC40702FA05F5354350F83460A8
:101C40009A4001397B68564021F0070140F8346022
:101C50006B4001447B604B6803F100434B60002202
:101C60000023C0E93223F0BD2DE9F8430026984651
:101C7000174633468E42D7E93242054603D2A64282
:101C800073EB020C0CD3A41BA1EB06092A4E62EBEA
:101C90000302C7E93242B9F1000F27D1BDE8F8834A
:101CA000B8EB040462EB4202A41943EB02024FEAD0
:101CB000D40C4CEA427C07EBCC0E04F0070457F836
:101CC0003C20DEF804E0E500C5F1200CA5F120047D
:101CD000EA400EFA0CFC42EA0C022EFA04F422430B
:101CE000013600F8012B43F10003C3E73846B04743
:101CF000002424F00701E308394404F00702D1F876
:101D000004C057F83330D200C2F12000A2F1200104
:101D1000D3400CFA00F003432CFA01F10B432B558E
:101D20000134A14501D0A045E3D12544A9EB040924
:101D30000022A8EB0404ACE7A90C40002DE9F04F09
:101D40000C46B3B016461F46C822414B002105463B
:101D500098474FEAD408A74244D23D4B224600217F
:101D6000684698476A46F1196B46B1426AD107F155
:101D7000C8030DEB03079DF8F03007F8C83C04F1E9
:101D8000C7030DEB0304083D14F8C83C63F07F0360
:101D900004F8C83C0024002396461F461E461EF841
:101DA000010BA3F12001C3F1200C00FA01F120FA8C
:101DB0000CFC9840083341EA0C01402B47EA00072D
:101DC00046EA0106EBD155F8081F6B6801347940EB
:101DD00073404445C5E9001302F10802DBD333B078
:101DE000BDE8F08FA5F108024FF0000C002306EBD0
:101DF000CC0B99469E461BF8010BA3F1200AC3F1B8
:101E0000200100FA0AFA20FA01F1984008334AEA60
:101E10000101402B40EA090941EA0E0EEBD152F8CC
:101E2000081F53680CF1010C81EA090183EA0E03D3
:101E3000C445C2E90013D9D3064B284698473F1B37
:101E4000264488E716F8010B03F8010B8DE700BF65
:101E5000C1284000A90C400010B5064B0446D02014
:101E60009847206010B9044B6F209847BDE8104098
:101E7000024B1847992A4000B92A4000F91A40003D
:101E800010B4044C00681346A4460A4610BC8821CE
:101E9000604700BF151B40000068024B1F228821CD
:101EA000184700BF151C400010B4034C1268A4462C
:101EB000882310BC604700BF691C40000068014BCC
:101EC000184700BFA92A400030B5D7B013460622F4
:101ED0000D4D009204460A4624A88821A8470B4DC0
:101EE000882324AA012102A8A84702AA23460AADF2
:101EF000144603CCAC4218605960224603F1080333
:101F0000F6D157B030BD00BF3D1D4000951A4000CE
:101F100030B5C7B0134606220D4D009204460A465E
:101F200014A84821A8470B4D482314AA012102A850
:101F3000A84702AA234612AD144603CCAC4218604F
:101F40005960224603F10803F6D147B030BD00BF07
:101F50003D1D4000951A400010B502460144002086
:101F60008A4200D110BD12F8013B0824584043B208
:101F7000002BBABF5B0083F04D034300013CD8B295
:101F8000F5D1EDE730B50022044601238B4201D3A1
:101F9000002030BD14F8015F15B99D1A85541A460A
:101FA0000133DBB2F2E730B5047800250246057054
:101FB0002046884200D204B930BD145C1554031980
:101FC000D8B2F6E7F8B50C4D2B681F2B04DD612065
:101FD0000A4B98470120F8BDF82901D96220F7E79C
:101FE000074F0C245C433E1901333855C6E90112F2
:101FF0002B600020EFE700BFBC15002079234000D4
:102000003C14002010B5064C064A00217620A0475B
:102010002346054ABDE8104000217720184700BF3D
:10202000C51F400099204000B9204000F0B50D4682
:10203000C1B01AB300238DF802106C468DF8003041
:102040008DF801000DF102019D4219DCA91C0F4B16
:10205000C9B20DF10100984763192F1D691DD87091
:1020600000260B4BE655C9B2204698473546094E27
:1020700014F8010B0135B047AF42F9DA41B0F0BDB9
:10208000D05C01F8010F0133DEE700BF591F4000AB
:10209000851F40007923400007B503238DF80730E2
:1020A0000DF10702034B012172209847002003B075
:1020B0005DF804FB2D20400030B50D4B0D4819781C
:1020C00089B000220C24D3B28B4202F1010206DB5C
:1020D000094B6A4672209847002009B030BD03F1D1
:1020E000200563436D44C35C05F8203CEBE700BF6B
:1020F000BC1500203C1400202D2040002DE9F047A5
:10210000C0B0002401ADDFF8E0908DF803402F4609
:10211000C84705F8010B58B905208DF80300334B6B
:102120000DF1030201216520984740B0BDE8F0871A
:102130000134042CECD12146DFF8B4803846C04786
:102140002C4B9DF805101A6805462B4800234FF0CC
:102150000C0CDEB2964202DB08D10120DDE70CFB5D
:1021600006FE013310F80EE08E45F2D19DF80730DF
:102170000533AB4206DA0420CFE7C84738550028BC
:10218000CAD001349DF807300433A342F5DAC847BA
:1021900004F580730DEB030A0AF8FC0C0028EAD161
:1021A000C5F1010353FA84F1C9B25FFA84F97819D1
:1021B000C047A9F10201114BC9B20DF105009847C2
:1021C0001AF8FD3C83420DD10B4B9DF806109DF88B
:1021D00005000C2202FB06339DF807209C6802AB29
:1021E000A0479AE7022098E7952340002D20400061
:1021F000A71F4000BC1500203C140020591F4000C0
:10220000FEE7000008B5154A154B9A4215D9154945
:102210008B420DD300BF144B144A002193421AD3B2
:10222000134B144A9A60144B9847144B9847FEE797
:1022300052F8040B43F8040BEAE7EBD20949101FEC
:10224000CB1A0344C2F10402D342E3D053F8040989
:1022500041F8040DF8E743F8041BDFE7D82F4000EE
:102260000000002058000020580000201017002017
:1022700000ED00E000004000712840002D06400005
:10228000184B4FF4004270B500205A65164C174D9C
:10229000174EA0470120A0470520A047154B00205E
:1022A00098471548A847154B00209847144B3E21E6
:1022B00001209847B0470028FCD0124B00209847D7
:1022C000114B98471148A847114A136823F08063BF
:1022D00013600B20A047BDE870400E4B4FF06051DB
:1022E0000F20184700140E4019284000D526400042
:1022F0000928400055284000000E270739274000D4
:10230000BD27400079274000092640001075700065
:10231000000A0E40652540001FB50F4B0F4C4FF4CF
:102320006132CDE901324FF40063039308200C4B76
:10233000984701A90B4B0C4898470B480B4B984703
:102340000B4B094898470B490920A0474FF0006103
:102350000A20A04704B010BD90AD71006525400073
:10236000192840001524400000060E404F2440006C
:10237000492440000100000838B5044D04460448D3
:102380002146A8470028FAD138BD00BF5524400097
:1023900000060E4013B5054C05480DF10701A04796
:1023A0000028F9D19DF8070002B010BD6324400059
:1023B00000060E4010B5054B0B209847BDE81040B5
:1023C000034B4FF040510720184700BF1928400029
:1023D0006525400010B5054B07209847BDE8104023
:1023E000034B4FF040510720184700BF4B254000DA
:1023F0006525400010B5054B07209847BDE8104003
:10240000034B4FF060510720184700BF33254000B1
:1024100065254000AC2310B50360D1E90032B3FB61
:10242000F2F31B095C1E4FF6FE7294420AD8036257
:102430008B68436040F20223C0F8203150230360D0
:10244000002010BD0120FCE74023036070471023EB
:102450000360704743699B0746BFC16100200120AC
:1024600070474369DB0743BF83690B70002001207D
:102470007047B1F1C05F426426D007D8B1F1006F58
:1024800011D0B1F1805F1CD0C9B97047B1F1005FC4
:1024900023D014D3B1F1405F12D021F08051B1F1BB
:1024A000205F0CD17047016F036F0B4023EA0203DA
:1024B0000367416F436F0B4023EA020343674260A7
:1024C0007047036F1343F3E7016F036F0B4023EA79
:1024D00002030367436F1343F0E7036F1343F8E707
:1024E000D30741644CBF4166016612F00A0F07D062
:1024F0009307016208D4130748BFC0F8841000E0B6
:102500004162416101607047C0F88010F9E710B581
:10251000029C41643CB141663BB101653AB1016343
:102520000161016010BD0166F6E74165F6E74163B0
:10253000F6E7430903F5001303F207735B0200F0AB
:102540001F00012282401A637047430903F50013FC
:1025500003F207735B0200F01F00012282405A63FE
:102560007047000037B5044640090D4600F50010DD
:1025700001F0F04100F20770B1F1005F4FEA402036
:102580001FD00BD8B1F1805F1BD0B1F1C05F18D064
:10259000B1F1006F15D0002003B030BD05F0E0436D
:1025A000B3F1405F17D0B1F1205FF4D104F01F0404
:1025B0000121124B2A46A140984700E00266012003
:1025C000EAE704F01F040122A2400D4B9847EC07F4
:1025D000F4D54266F3E705F0605202F148414A4201
:1025E00005F0010304F01F044A4101210093A140BA
:1025F000C5F38003034CA047E1E700BFE12440009E
:10260000732440000F25400010B52C4A2C4B116B51
:1026100001F0030101292AD0023901291DD8116ACC
:10262000CC0148D427491960116A01F070011029C2
:102630003ED020293FD0106B196800F0030002281B
:102640000BBF946AD46A906AD06AC4F30A4404FB4C
:102650000111C0B2B1FBF0F107E01B49496A08065D
:102660004CBF4FF400414FF4FA4119600DE0116A7C
:10267000C90101D51549F8E712491960116A01F03D
:102680007001102912D02029F4D0106B196800F0C5
:10269000700070281BBF126BC2F30212032221FAD2
:1026A00002F208BFB1FBF2F21A6010BD0849DCE784
:1026B00007491960BFE70549FBE700BF00040E406A
:1026C0000400002000093D0000140E40001BB7006C
:1026D00000127A000E4B98420E4B03D84FF08062E6
:1026E0001A6070470C4A904201D20C4AF8E70C4A33
:1026F000904201D20B4AF3E70B4A904201D80B4AB1
:10270000EEE70B4A90428CBF0A4A4FF00422E7E7FB
:10271000FF2C3101000A0E40005A62020001000441
:102720000087930300020004FFB3C4040003000405
:10273000FFE0F505000500040E4B1A6B22F00302C2
:102740001A6340F60102996E09070BD51A6B22F045
:1027500070021043186340F60102996E090705D50F
:1027600000207047013AEED101207047013AF4D1C0
:10277000FAE700BF00040E400F4B1A6B22F0030271
:1027800042F001021A6340F60102996E09070BD567
:102790001A6B22F070021043186340F60102996E22
:1027A000090705D500207047013AEED10120704796
:1027B000013AF4D1FAE700BF00040E400F4A30B1ED
:1027C000136A0F4919400F4B0B4313627047106A8D
:1027D0000B0220F45C119BB221F003010B4343F484
:1027E0005C1343F001031362936EDB07FCD5136A9D
:1027F00043F09B7343F48033E7E700BF00040E40CF
:10280000FCFFC8FE02003701024B986E00F48030D6
:10281000704700BF00040E40222816D81F280C4A1B
:102820004FF0010307D89169834033EA010118BFD3
:10283000136100207047D2F808112038834033EA32
:102840000101F6D0C2F80031F3E70120704700BF64
:1028500000040E40034B18B1034AC3F8E42070474C
:10286000024AFAE700040E4001434D5000434D5028
:1028700070B50F4B0F4DAB42A3EB050607D0B6105A
:10288000002455F8043B01349847A642F9D800F0DB
:102890008FFB094D094B5E1BAB424FEAA60606D0E3
:1028A000002455F8043B01349847A642F9D870BD7E
:1028B000BC2F4000BC2F4000BC2F4000C02F400068
:1028C000830730B547D0541E002A3ED0CAB2034613
:1028D00001E0013C39D303F8012B9D07F9D1032C0A
:1028E0002CD9CDB205EB05250F2C05EB054535D9C7
:1028F000A4F1100222F00F0C03F1100EE6444FEA8F
:10290000121C1A46C2E90055C2E90255103272453E
:10291000F8D10CF1010214F00C0F03EB021204F0D9
:102920000F0C13D0ACF1040323F00303043313445E
:1029300042F8045B9342FBD10CF003042CB1C9B202
:102940001C4403F8011BA342FBD130BD644613466F
:10295000002CF4D1F9E703461446C0E71A46A44612
:10296000E0E700BF844641EA000313F003036DD1A2
:10297000403A41D351F8043B40F8043B51F8043B42
:1029800040F8043B51F8043B40F8043B51F8043B49
:1029900040F8043B51F8043B40F8043B51F8043B39
:1029A00040F8043B51F8043B40F8043B51F8043B29
:1029B00040F8043B51F8043B40F8043B51F8043B19
:1029C00040F8043B51F8043B40F8043B51F8043B09
:1029D00040F8043B51F8043B40F8043B51F8043BF9
:1029E00040F8043B51F8043B40F8043B51F8043BE9
:1029F00040F8043B403ABDD2303211D351F8043B89
:102A000040F8043B51F8043B40F8043B51F8043BC8
:102A100040F8043B51F8043B40F8043B103AEDD237
:102A20000C3205D351F8043B40F8043B043AF9D288
:102A3000043208D0D2071CBF11F8013B00F8013B5B
:102A400001D30B8803806046704700BF082A13D368
:102A50008B078DD010F003038AD0C3F10403D21A80
:102A6000DB071CBF11F8013B00F8013B80D331F8B4
:102A7000023B20F8023B7BE7043AD9D3013A11F834
:102A8000013B00F8013BF9D20B7803704B7843709F
:102A90008B78837060467047024B0146186800F0DF
:102AA00041B800BF08000020024B0146186800F042
:102AB000B9B800BF0800002008B5064B044613B1A2
:102AC000002100F023F9044B1B6803B1984720460E
:102AD00000F08CF90D2D4000F816002070B5104E56
:102AE000336805460C46B3B12146284600F0FCF891
:102AF000431C0CD0C41C24F00304A04205D0211AAE
:102B0000284600F0F1F8013001D0204670BD4FF0AA
:102B1000FF34204670BD194600F0E6F83060E3E768
:102B2000FC1600202DE9F843CD1C25F003050835DF
:102B30000C2D38BF0C25002D064618DBA94216D8EF
:102B4000DFF8DC8000F0CCF8D8F80420A2B11446FD
:102B500003E0636822467BB11C4623685B1BF8D404
:102B60000B2B1FD89442636854D053600CE00C23A5
:102B700033600020BDE8F88329463046FFF7AEFFFA
:102B8000431C044619D00560304600F0ABF804F150
:102B90000B00231D20F00700C21A1CBF1B1AA350F4
:102BA000BDE8F88361199442256014BF5160C8F8EC
:102BB0000410635163684B60E6E7D8F804701FB3F4
:102BC0003C467F68002FFBD123683946304604EB32
:102BD000030900F089F8814516D12368ED1A2946CA
:102BE0003046FFF77BFF01300ED02368D8F8042071
:102BF0002B442360536883B1A34203D01A465B6819
:102C00009C42FBD10023B0E70C233360304600F038
:102C100069F8AEE7C8F80430B6E7C8F80470B3E75F
:102C2000FC160020002950D038B551F8043C0C1F88
:102C3000002BB8BFE418054600F052F8274A136885
:102C40002BB1A3420CD92168601883422CD0636059
:102C500028461460BDE8384000F044B8A3420FD8BD
:102C60001A465B68002BF9D111685018844217D0BE
:102C70002CD3636054602846BDE8384000F032B879
:102C800011685018A04214D020D8216860188342DF
:102C9000EFD118685B680844C4E900035460EAE7B0
:102CA00023680B441360E6E718685B6808442060FB
:102CB000CDE720680144501883421160DBD1D3E98D
:102CC00000040144C2E90014D5E770470C232B60CF
:102CD0002846BDE8384000F005B800BF00170020C6
:102CE000704700BF704700BF38B5074D002204464B
:102CF00008462A6000F06CF8431C00D038BD2B68F1
:102D0000002BFBD0236038BD081700202DE9F04FC1
:102D1000DFF8B890D9F8006083B0002E34D0884630
:102D200001907568D6F888706C1E2DD4013506EBBD
:102D3000850507F1800BB8F1000F28D173682A6868
:102D4000013BA34216BF002374602B60BAB1D6F8D2
:102D500004A06FB3D7F800110123A3400B4227D082
:102D6000D7F8040157F8241003422BD1019890475B
:102D70007368D9F80020534520D1B2421ED1013CDE
:102D8000631CA5F10405D6D103B0BDE8F08F57B19F
:102D90005BF824304345D1D0013C621CA5F1040509
:102DA000F2D0002FF4D1013CEED3013CFBD2EBE793
:102DB00090477368D9F800205345DED0002AE3D04D
:102DC0001646AEE708469047D2E700BF041700203A
:102DD000044A05491368002B08BF0B4618441060CD
:102DE000184670470C17002010270020FEE700BF90
:102DF000ECFB0AFD99FE13FAD5058E051F01CA00EA
:102E000055FF6E022906B600C2034EFB3EFABC0512
:102E10003D02D3FA08017F01C3FCB205BEF97EFF73
:102E200057FDF903DC026002FAF99B0133FFDDF97B
:102E3000C7048C02D8FDF703F3FAD305E6FEF8F9D0
:102E40000402F8FFC0FE66FDAEF976FB7E00BD050C
:102E5000ABFCA6FFF1FE3E036B0073FA09FF49FCD1
:102E600072FEC1031CFA2BFDC001D7FBA50205FBB6
:102E7000B1FBAE012B024B031DFB67030E0669007D
:102E8000A6014B02B10015FFDDFE34FE26067506D5
:102E90000AFF0A0387046DFFF7FCCB05A6FD5F045C
:102EA000CAF9840298FC5D01A201490164FFB5FFE3
:102EB000310349045B0262022A05FBFA47FA8001EA
:102EC00041FB78FFC204C9FA96FCDC005DFB85F982
:102ED0005FFB06FA02FB1A031AFAAAFC9AFCDE014F
:102EE00094FFCCFEE403DF03BE034CFAF2055C065C
:102EF00001000000000000008280000000000000CF
:102F00008A800000000000800080008000000080B7
:102F10008B80000000000000010000800000000025
:102F20008180008000000080098000000000008097
:102F30008A0000000000000088000000000000007F
:102F400009800080000000000A00008000000000EE
:102F50008B800080000000008B00000000000080DB
:102F600089800000000000800380000000000080D5
:102F7000028000000000008080000000000000804F
:102F80000A800000000000000A00008000000080AD
:102F900081800080000000808080000000000080B0
:102FA0000100008000000000088000800000008018
:102FB000F8B500BFF8BC08BC9E467047350140001C
:102FC000F8B500BFF8BC08BC9E4670470D01400034
:082FD00094F9FF7F01000000ED
:102FD800CC00000000093D000C00002000000000AB
:102FE800C0150020281600209016002000000000C0
:102FF80000000000000000000000000000000000C9
:1030080000000000000000000000000000000000B8
:1030180000000000000000000000000000000000A8
:083028000000000000000000A0
:040000050040220590
:00000001FF
