:020000040040BA
:10000000481E0020912540008D2540008D25400090
:100010008D2540008D2540008D254000000000000A
:100020000000000000000000000000008D254000DE
:100030008D254000000000008D2540008D254000EA
:100040008D2540008D2540008D2540008D254000E8
:100050008D2540008D2540008D25400000000000CA
:100060008D2540008D254000000000008D254000BA
:100070008D254000000000008D2540008D254000AA
:1000800000000000000000008D2540008D2540008C
:100090008D2540008D2540008D2540008D25400098
:1000A0008D2540008D25400000000000000000006C
:1000B000000000008D2540008D2540008D2540006A
:1000C0008D2540008D2540008D2540000348044BC0
:1000D000834202D0034B03B11847704730364000CB
:1000E00030364000000000000548064B1B1AD90FAF
:1000F00001EBA301491002D0034B03B1184770472D
:1001000030364000303640000000000010B5064C8C
:10011000237843B9FFF7DAFF044B13B10448AFF378
:1001200000800123237010BD0800002000000000A3
:100130003036400008B5044B1BB104490448AFF306
:100140000080BDE80840CFE7000000000C00002060
:1001500030364000C8072DE9F0410E4617461D46CF
:100160000ED5324B98473249324B33489847334B80
:100170009847314A20217020314B9847002005E0F4
:1001800011F0020832D01F2A02D80420BDE8F08105
:10019000A3F5407128482B4B4FF448729847202410
:1001A00071070BD56034E4B2A742EED32919204879
:1001B000244B4FF4CC62A1F5CC619847320717D598
:1001C0002034E4B2A742E0D31B4BB8F1000F08BFC4
:1001D0001D46164B98471C491C4B1D482A469847FC
:1001E000164B98471A4A20216320C5E74446D7E7B3
:1001F000F30616D5BC42C8D829194FF44072A1F5B0
:100200004071104B12489847084B9847084A1049CC
:10021000104B0D489847094B98470B4A20217320F3
:10022000AAE7E01B18BF01208000AFE7A12740002C
:1002300044030020D5024000A4090020812740008B
:10024000A5234000112D4000240000203D03400064
:1002500044000020B503400008B5124B124C9847EB
:10026000124B9847124B98474FF44872002111489F
:10027000A0474FF4CC6200210F48A0474FF44072D2
:1002800000210E48A047202200210D48A0470D4B19
:100290000D4C98470D4A0E4B4FF448610220984789
:1002A000A047FDE7252640006D2C4000BD264000FC
:1002B00061274000A40900204403002044000020DE
:1002C000240000207D2340007D2440005501400093
:1002D0003D23400030B591B005460C46134B4021FC
:1002E0006846984721462846114B6A469847294652
:1002F000104B4FF4487204F5407098474FF4487221
:10030000294604F5C4600C4B984704F5C86408AA54
:1003100010AD134603CBAB42206061601A4604F176
:100320000804F6D1002011B030BD00BF29214000E3
:10033000CD094000112D4000651040002DE9F0432B
:10034000A9B0184B80460E46684620216C461746D9
:1003500098470FCC08AD0FC594E80F0085E80F0053
:10036000114B124C4FF44872394610A898470DF1C2
:1003700080090F4B402208A918A898473A464B46D7
:1003800008A94046A04718AC3246254603CD4D4546
:10039000106051602C4602F10802F6D1002029B00D
:1003A000BDE8F0832921400065104000C50A4000E7
:1003B000AD104000F0B5A1B01546184B0646684692
:1003C0000F4605F5C464984708AA05F5C86C20686F
:1003D0006168134603C3083464451A46F7D14022C6
:1003E0000DEB020069460E4B984718AB05F54072BD
:1003F00069460C4D3846A8473A46054621463046E0
:10040000094B0A4C9847C5F101033046DBB2202264
:1004100010A9A047002021B0F0BD00BF050D40008D
:10042000AD104000D90B4000D5214000911F400085
:10043000F7B5214E0A460430002140F601556C46BE
:1004400002F1100732F902CB05EAEC7363441BB2E8
:100450001B0103F2816373431B0F974204F8013BB6
:10046000F0D19DF801209DF8003043EA021300F816
:10047000043C9DF803209DF8023043EA021300F883
:10048000033C9DF805209DF8043043EA021300F870
:10049000023C9DF807209DF80630083143EA02131C
:1004A000B1F5807F00F8013C00F1040001D03A462C
:1004B000C5E703B0F0BD00BFFB3A010010B50B1D4E
:1004C00040F60154843113F8042C02F00F02624309
:1004D00008321211028013F8042C12096243083208
:1004E0001211428013F8032C02F00F02624308320B
:1004F0001211828013F8032C120962430832121180
:10050000C28013F8022C02F00F026243083212116B
:10051000028113F8022C120962430832121142813F
:1005200013F8012C02F00F0262430832121182818B
:1005300013F8012C120962430832043312118B4262
:10054000C28100F11000BED110BD00002DE9F341C1
:100550004FF4A073214C03FB020240F6015C002023
:1005600040F281676E4601F1080531F902EB0CEAB1
:10057000EE7373449BB29B02DB192CBF4FF0010852
:100580004FF00008A3FB043E04FB08E3C3F3090398
:100590008D4226F8023BE8D1BDF80210BDF800609C
:1005A00016708B0043EA1623BDF8046053703301C4
:1005B00043EA91139370BDF806300430990141EA83
:1005C00016119B08B0F5807FD170137102F10502FE
:1005D00001D02946C6E702B0BDE8F081B7AF1300ED
:1005E0004FF4A07330B503FB021200F5007440F61F
:1005F0000151537815781B0203F440732B434B438E
:1006000003F500739B0A0380937855789B0103F4EC
:10061000707343EA95034B4303F500739B0A4380D1
:10062000D37895781B0103F47C7343EA15134B438D
:1006300003F500739B0A83801379D5789B0043EA06
:1006400095134B4303F500739B0AC3800830844223
:1006500002F10502CDD130BDF7B5DFF894C0002519
:1006600004460A46284640F601576E4602F110013C
:1006700032F902EB07EAEE7373441BB21B0103F27B
:1006800081630CFB03F31B0F914206F8013BEFD192
:100690009DF801209DF800309DF8056043EA0213A3
:1006A0002278534003439DF803209DF8020040EA5E
:1006B0000210627850409DF8042042EA0612A678A3
:1006C000724010439DF807609DF8062042EA06122A
:1006D000E6787240104308351843B5F5807F00F086
:1006E000FF0004F1040401D00A46BEE703B0F0BDE8
:1006F000FB3A01002DE9F7434FF4A07300242B4D82
:1007000003FB020240F6015E204640F2816C6F4618
:1007100001F1080631F9028B0EEAE87343449BB2FB
:100720009B0213EB0C032CBF4FF001094FF00009A3
:10073000A3FB053805FB0983C3F309038E4227F8A1
:10074000023BE7D1BDF800101378BDF80290BDF868
:100750000480BDF806704B4003434FEA890040EA2D
:100760001120517848404FEA081141EA991192F856
:10077000029081EA09010843B90141EA181192F88F
:10078000038081EA08010843117981EA970108434F
:1007900004341843B4F5807F00F0FF0002F1050235
:1007A00001D03146B3E703B0BDE8F083B7AF130023
:1007B00070B50D4604460D4E0846B0472846B04772
:1007C00023460021AC1C35F9212034F921001A7090
:1007D0000131C2F3072242EA00128029C0F30B1054
:1007E0005A70987003F10303EDD170BD29224000C7
:1007F00030B50023851C4A780C78120202F470622E
:10080000224320F823208A784C78120142EA1412FD
:1008100025F823200133802B01F10301EBD130BDFA
:1008200010B4024C024BA44610BC60473D2240006D
:100830004434400010B4024C024BA44610BC604744
:100840003F2240004434400070B5B0B004461D461D
:1008500068461346054E0A46C021B047044B2A4657
:1008600069462046984730B070BD00BF9D214000CA
:10087000D11F400070B5A0B004461D46684613461F
:10088000054E0A468021B047044B2A466946204659
:10089000984720B070BD00BF9D214000412040001E
:1008A000004B1847AD094000004B1847BD094000F8
:1008B00010B4024C024BA44610BC604741224000D9
:1008C0004434400010B4024C024BA44610BC6047B4
:1008D0004322400044344000004B18472922400086
:1008E000004B184745224000004B1847712240003A
:1008F0002DE9F0470024DFF834A007468846A146DA
:1009000007EB04160025304626F8029B18F8042051
:100910002A4102F0010240F281610135D047082DE1
:10092000F1D10134202CEBD1BDE8F08799224000B1
:10093000F0B500220E4F0138164600F8016F01EBAA
:100940004205002435F9023B90F800C05B0003F239
:1009500081637B43C3F30073A340013443EA0C0378
:10096000082C0370EED10832B2F5807FE5D1F0BDDE
:10097000FB3A010070B5064E04460D46B04705F53A
:10098000007104F5C0703346BDE87040184700BFE1
:10099000B107400070B5044D0446A84704F5007047
:1009A0002B46BDE870401847A10840000149024BA2
:1009B000184700BF44324000BD2240000149024BAD
:1009C000184700BF442E4000C52240002DE9F04FDB
:1009D000ADF2546D0446039104AD02F12006106897
:1009E00051682B4603C30832B2421D46F7D104A911
:1009F0004FF0020808462B4B8DF830802122984793
:100A00000CAD0023284EDFF8A4B0DFF8A4A0DFF877
:100A1000A4901A46294694A8B047012229460023EB
:100A20000DF58A60B0470027234B94A8984704AB84
:100A30003A4694A914A80097D84714A8D04742462C
:100A40000123294614A8B04714A8C847DFF86C80D2
:100A5000204614A9C04704AB012294A914A800970A
:100A6000D84714A8D04701230322294614A8B04729
:100A700014A8C84704F5C07014A9C047104B0398C8
:100A800094A9984704F5407404AB1A4603CAAA42D5
:100A900020606160134604F10804F6D10DF2546D34
:100AA000BDE8F08FAD1040004908400091204000A3
:100AB000A9084000A108400095094000B107400086
:100AC000750940002DE9F04FADF2146D1C4602F59A
:100AD000407302930023334F03910646214684A8B6
:100AE00015461A46B8470023012221460DF58260BB
:100AF000B8472D4BDFF8B4B0DFF8B4A084A898470E
:100B00004FF000085FFA88F90127DFF8A8C0029BC0
:100B100000974A4684A904A8E04704A8D84709F1E9
:100B200002023B46214604A8D047DFF88C9004A877
:100B3000C847224B424604A930469847B8F1000FF7
:100B40002ED0DFF87C80294604A8C04784AA10462E
:100B50001C4B04A9984705F5C07104A8C0470DF5C2
:100B6000826204A9184B84A8984784A8D8473B46BA
:100B70000422214684A8D0470399144B04A898471F
:100B800084A904AA0846124B984784A8C847114B69
:100B900084A906F5207098470DF2146DBDE8F08F1A
:100BA000B846AFE74908400095094000A908400051
:100BB0007508400091204000D90840004D054000D4
:100BC000F1074000B1084000C5084000F1084000AE
:100BD000E1084000310440002DE9F04FADF2146D02
:100BE0001E4602F5407302930023394C039181465F
:100BF000314684A890461A46A04700230122314678
:100C00000DF58260A047334B84A8984700273D46E6
:100C10003C465FFA87FB4FF0010A5A46DFF8B8C03E
:100C2000029BCDF800A084A904A8E0472B4B04A8A0
:100C300098470BF10202DFF8A8C0DFF8A8B05346CE
:100C4000314604A8E04704A8D847274B3A4604A9F0
:100C500048469847054344EAE074002F36D0234FB6
:100C6000414604A8B84784AA1046214B04A99847D6
:100C700008F5C07104A8B8470DF5826204A984A8DC
:100C80001C4B984784A8154B98475346042231467D
:100C900084A8134EB0470399174B04A8984784A91A
:100CA00004AA0846154B984784A8D847144B84A932
:100CB00009F52070984705436D4244EAE07060EB07
:100CC0004000C00F0DF2146DBDE8F08F5746A0E74D
:100CD000490840009509400091204000A9084000C3
:100CE00075084000D9084000F5064000F1074000B3
:100CF000B1084000C5084000F1084000E10840008C
:100D0000590640002DE9F041ADF5806D1546DFF83C
:100D10006480194F0646002268460C46C047684664
:100D2000B847164B2A46694668469847214601222D
:100D300080A8C04780A8B84705F5C07280A968465A
:100D40000F4B984768460F4B984704F5207180A8D1
:100D50000D4B98476A4680A968460C4B98476846F1
:100D60000B4B98470B4B6946304698470DF5806D05
:100D7000BDE8F081E1054000A108400021084000E5
:100D800035084000A9084000BD044000E9084000C3
:100D9000D90840003109400010B5054BC822002198
:100DA0000446984700220023C4E9322310BD00BF47
:100DB0006D2C400073B58DF80720D0E932234D1E0D
:100DC000002B08BFAA42104E04460FD19DF80730F1
:100DD00063F07F038DF807300DF107010123B04761
:100DE00000220023C4E9322302B070BD01230DF1BB
:100DF0000701B04780238DF807302A4601230DF103
:100E000007012046EBE700BF371140002DE9F84FFE
:100E1000DFF860A0DFF860B004460F4616461D46B6
:100E20004FF000084FF00009D4E93223A91843F12C
:100E30000003B94273F100030CD22B463146204621
:100E4000D047D4E932325B1942F10002C4E93232B0
:100E5000BDE8F88FBB1A31462046D047D4F8C830D9
:100E60002046DA1BC4E93289FB1A15441E44D847D0
:100E7000DAE700BF37114000891140002DE9F8433F
:100E8000DFF86880DFF8689006460C4617461D4676
:100E9000A54215D2013CEDB12B4600223946304621
:100EA000C047A54216D19DF8203063F07F038DF82E
:100EB00020302A46012308A93046C047BDE8F88300
:100EC0003946234600223046C0473046C8472D1BCE
:100ED0002744DDE701232A4608A93046C04780237E
:100EE0008DF8203022460123E5E700BF371140008E
:100EF000891140002DE9F0470D461446D2E9322110
:100F0000984695424FF000038B412CBF9246AA466B
:100F100007465346A8EB02020146DFF848902046F8
:100F2000C847D4E932625744B6EB0A06A5EB0A0576
:100F3000DFF834A062F10002C4E932620DB9BDE805
:100F4000F0872046D04745452E4628BF46463346C3
:100F5000002239462046C8473744AD1B0022A8EB83
:100F60000606E9E7F5104000891140002DE9F84335
:100F7000DFF82880DFF8289005460C4616461F4605
:100F80000CB9BDE8F8833046C04729463B460022ED
:100F90003046C8473D44013CF2E700BF891140009C
:100FA000F5104000004B1847990D400010B4034C59
:100FB0001346A4460A4610BC882160470D0E400027
:100FC000014B1F2288211847B50D400010B4024C78
:100FD0008823A44610BC6047F50E4000704700000F
:100FE00073B5084B0D4616460021C82204469847A3
:100FF0001F23009320463346034C2A46A821A047CE
:1010000002B070BD6D2C40007D0E400010B4024C4B
:10101000A823A44610BC60476D0F4000F0B5B5B0E2
:10102000044616461F4668460A4B0D4698473B46FF
:1010300032466846084E8821B0476846074B1F2253
:101040008821984720468823054C6A462946A047B0
:1010500035B0F0BD990D40000D0E4000B50D4000BB
:10106000F50E400070B5B4B00D46164604460B4B65
:101070006846984733462A466846094D8821A8475E
:101080006846084B06228821984720468823064C4C
:101090006A462021A04734B070BD00BF990D4000C2
:1010A0000D0E4000B50D4000F50E400070B5B4B017
:1010B0000D46164604460B4B6846984733462A466B
:1010C0006846094D4821A8476846084B0622482132
:1010D000984720464823064C6A464021A04734B032
:1010E00070BD00BF990D40000D0E4000B50D4000D1
:1010F000F50E4000F0B50B44521A994200D1F0BDF4
:10110000541824F00706E508064404F00704D6F84E
:1011100004C050F83550E400C4F12007A4F12006C3
:101120000CFA07F725FA04F43C432CFA06F634438C
:1011300001F8014BE1E7F7B50B44521A994201D18E
:1011400003B0F0BD54184FEAD40C24F0070704F0A4
:10115000070411F8016BE4000744A4F12005C4F171
:10116000200E06FA05F526FA0EFEA6407C680194CC
:1011700050F83C406640019C40F83C6045EA0E0552
:101180006C407C60DAE700002DE9F04FBDB00368E9
:101190000A9343680B9383680C93C3680D930369A8
:1011A0000E9343690F9383691093C3691193036A84
:1011B0001293436A1393836A1493C36A1593036B60
:1011C0001693436B1793836B1893C36B1993036C3C
:1011D0001A93436C1B93836C1C93C36C1D93036D18
:1011E0001E93436D1F93836D2093C36D2193036EF4
:1011F0002293436E2393836E2493C36E2593036FD0
:101200002693436F2793836F2893C36F2993D0F856
:1012100080302A93D0F884302B93D0F888302C93E8
:10122000D0F88C302D93D0F890302E93D0F89430A5
:101230002F93D0F898303093D0F89C303193D0F879
:10124000A0303293D0F8A4303393D0F8A830349340
:10125000D0F8AC303593D0F8B0303693D0F8B43005
:101260003793D0F8B8303893D0F8BC303993D0F8F1
:10127000C0303A93D0F8C460014B009302E000BF45
:1012800048354000149A0A9B159953400B9A82EAFC
:1012900001051E9A53401F9A5540289A5340299A97
:1012A0005540329A5340339A089355400C9B169AF6
:1012B00083EA02090D9B179A83EA0208209B189A79
:1012C00089EA0309219B88EA03082A9B89EA030922
:1012D0002B9B88EA0308349B89EA0309359B88EA3B
:1012E00003080E9B83EA020C0F9B199A83EA0207FC
:1012F000229B239A8CEA030C57402C9B2D9A8CEA54
:10130000030C5740369B379A8CEA030C5740109BCE
:101310001A9ADDF874E083EA0204119B1B9A83EAAF
:101320000201249A129B5440259A51402E9A54400F
:101330002F9A5140389A5440399A51401C9A5A4039
:10134000139B83EA0E0E269B5A40279B8EEA030EC0
:10135000309B5A40319B8EEA030E3A9B4FEA490B71
:101360005A404BEAD87B4FEA480A8EEA060E8BEACF
:1013700002034AEAD97A01938AEA0E0302934FEAFA
:101380004C0B089B4BEAD77B4FEA470A4AEADC7AC8
:101390008BEA030303938AEA05034FEA410A4AEA08
:1013A000D47A04938AEA08034FEA4E0848EAD278CE
:1013B000520042EADE72059382EA0C03069388EA41
:1013C00007030793089B6A0042EAD3725B0043EA73
:1013D000D5736340089382EA01034FEA440B0A9AEB
:1013E0000993019B4BEAD17B8BEA090B83EA020943
:1013F000029B0B9A1799239C2F9F83EA020A039B57
:10140000169A5A40049B150D4B4045EA03351B0DB7
:1014100043EA0233229A05998BEA02024C404FEAD2
:10142000525848EAC428640D44EAC2242E99069A08
:101430005140079A7A404FEA425E4EEAD12E490562
:101440003A9F41EAD221089A7A40099F7E404FEAAA
:10145000863C4CEA924C920342EA9642009ED6E9C0
:1014600000768AEA06060B9689EA070728EA050647
:101470007E400B9F0A9624EA030677402EEA040674
:101480005E400B9721EA08076F40239625EA09057D
:101490002CEA0E0623EA0A03744083EA0C0329EAC5
:1014A0000206229722EA01076A4071403B942E927D
:1014B0002AEA0C04109A2F93069B169187EA0807D4
:1014C00084EA0E013A97179183EA0201079B119A69
:1014D0001D9C2B9F53404FEA037C4CEA111C0907CB
:1014E00041EA13111C9A089B5340099A6240160561
:1014F00046EA13361B051E9C43EA1233019A82EA20
:1015000004051F9C029A62404FEAC20848EA5578D7
:10151000ED002A9C45EA5275039A6240049C4FEA0A
:10152000D24E7C404EEA443EE40C44EA4234369AC1
:10153000379F8BEA0209059A7A404FEAD90747EAB2
:10154000427725EA030AD20842EA49728AEA010A86
:1015500028EA060989EA0C09CDF8A8A02EEA050AAE
:101560008AEA030ACDF8AC9024EA080989EA060958
:10157000CDF840A023EA010327EA0E0A8AEA05050E
:1015800026EA0C067B40CDF8449022EA04091E9519
:101590001C9389EA080586EA02031F951D932CEA2D
:1015A0000205039B0C9A21EA070883EA0201049BC7
:1015B0000D9A53404FEA430C4CEAD17C88EA0E0E58
:1015C0006C40490041EAD371CDF8D8E0189B3794BC
:1015D000059A199C319FDDF8CC9062408BEA030399
:1015E000960146EA93669B01249C43EA9263069A1D
:1015F00082EA0405259C079A62404FEA426848EA5D
:10160000D5186D0645EAD215309C089A5440099ABF
:101610007A404FEA022E4EEA146E2402329F44EAC8
:101620001264019A7A40029F87EA09094FEA8947C2
:1016300047EA923725EA030A920442EA99328AEA93
:10164000010A28EA060989EA0C09CDF860A024EA13
:10165000050A8AEA030ACDF8649023EA01032EEA18
:10166000080989EA0609534026EA0C06CDF8C0A00D
:1016700022EA040A8AEA0505CDF8C490329327EAE3
:101680000E0986EA07030C95339389EA0805089B3F
:101690000D9521EA0208129A83EA0201139A099B26
:1016A00053402CEA07054FEAC36C4CEA511CC906AB
:1016B00041EA531188EA0404019B149A249485EAB0
:1016C0000E045A402594029B159C160F634046EA6F
:1016D00003161B0F43EA0213039A209C2D9F82EAF4
:1016E0000405219C049A62404FEA822848EA9558F2
:1016F000AD0245EA92552C9A8BEA0204059A7A408B
:101700004FEAC23E4EEA544EE403389F44EA524444
:10171000069A82EA0709399F079A7A404FEA192701
:1017200047EA026725EA060A120A42EA09628AEAD9
:10173000010A28EA030989EA0C09CDF8E0A024EAA5
:10174000050A8AEA060ACDF8E4902EEA080989EA31
:101750000309CDF850A023EA0C0327EA040A8AEA19
:1017600005055340CDF8549026EA010622EA0E09F9
:101770002C95219389EA08050E9B2D9521EA0708EF
:1017800086EA07012CEA020588EA0404059A2091FA
:101790000F9912948BEA030385EA0E0413949D08B3
:1017A00082EA010445EA8475A40844EA83741A9A1B
:1017B000069B269E279F83EA0201079B1B9A5A409D
:1017C0004B0A43EAC253520A42EAC1520899714095
:1017D000099E4FEA516C77404CEAC71C7F0E47EADE
:1017E000C1170199289EDDF8A4E0DDF8D49071407E
:1017F000029E4FEAD15886EA0E0648EA4628F60DC0
:10180000DDF8D0E046EA4126039981EA0E01DDF8D1
:1018100010E08EEA09094FEA890E4EEA917E2CEA21
:10182000030A890041EA99718AEA050A27EA02094E
:10183000CDF898A089EA040928EA0C0ACDF89C9012
:101840008AEA030A26EA070923EA050389EA020964
:101850004B4022EA04020E9382EA0E03CDF8D0A098
:101860002A9ACDF8D49021EA080A2EEA06090F93A5
:101870000A9B8AEA0C0C89EA0707CDF868C01B9717
:1018800025EA010C24EA0E072B995A400B9B7E4057
:10189000299683EA01061899229B4A4019994E40DD
:1018A00038994A4039994E4026994A4027994E40E6
:1018B000109983EA01091199239B8CEA080CCDF851
:1018C000A0C083EA0108309B1E99DDF8CCE089EACC
:1018D0000309319B88EA0308149B89EA0309159BD5
:1018E00088EA0308349B89EA0309359B88EA0308E0
:1018F0003A9B83EA010C3B9B1F9983EA01070C9BEF
:101900000D998CEA030C4F402C9B2D998CEA030C0B
:101910004F401A9B1B998CEA030C4F40169B36993B
:1019200083EA0105179B379983EA010424991C9BDC
:101930004D4025994C4012994D4013994C4028999F
:101940004D4029994C40329959401D9B83EA0E0E17
:101950002E9B59402F9B8EEA030E209B5940219BC2
:101960008EEA030E0E9B4FEA490B59400F9B4BEA40
:10197000D87B4FEA480A8EEA030E4AEAD97A8BEA04
:1019800001034FEA4C0B01934BEAD77B8AEA0E0323
:101990004FEA470A02934AEADC7A8BEA020303938E
:1019A0008AEA06034FEA440A4AEAD57A04938AEAA5
:1019B00008034FEA4E0848EAD178490041EADE714F
:1019C000059381EA0C03710041EAD271520006933B
:1019D00042EAD67288EA0703079382EA050308936E
:1019E00081EA0403019A09934FEA450B0A9B079E7B
:1019F000099F4BEAD47B8BEA090B83EA02090B9B14
:101A0000029A059C83EA020A109B039A83EA020168
:101A1000119B049A0D0D5A400C9B45EA0235120D9C
:101A200042EA013283EA0B010D9B4FEA51585C40B8
:101A300048EAC428640D44EAC124129B069959401F
:101A4000139B5E404FEA465E4EEAD12E490541EABD
:101A5000D621089B0E9E5E4033460F9E7E404FEA85
:101A6000863C4CEA934C9B0343EA9643009ED6E99E
:101A700002768AEA06060B9689EA070728EA05062F
:101A80007E400B9F0A9624EA020677402EEA04065F
:101A900056400B9721EA08076F400D9625EA090585
:101AA0002CEA0E06744022EA0A0229EA03060C9781
:101AB00023EA01076B40129382EA0C037140069AF5
:101AC0000F9413932AEA0C04169B109184EA0E01DA
:101AD000119183EA0201079A179B099C53404FEA30
:101AE000037C4CEA111C090741EA1311089A1C9B5C
:101AF00053401D9A6240160546EA13361B0543EA19
:101B00001233019C189A82EA0405029C199A6240D9
:101B100087EA08074FEAC20848EA5578ED0045EA27
:101B20005275039C149A0E976240049F159C4FEACD
:101B3000D24E7C404EEA443EE40C44EA42341A9AC7
:101B400082EA0B091B9A059F7A404FEAD90747EAB8
:101B5000427725EA030AD20842EA49728AEA010A70
:101B600028EA060989EA0C09CDF850A02EEA050AF0
:101B70008AEA030ACDF8549024EA080989EA06099A
:101B8000CDF858A023EA010327EA0E0A8AEA0505E0
:101B900026EA0C067B40CDF85C9022EA04091895F1
:101BA0001C9389EA080586EA020319951D932CEA1D
:101BB0000205229B039ADDF8089021EA070883EAD0
:101BC0000201049A239B099F53406C404FEA430C47
:101BD0004CEAD17C1F9A1B944900059C41EAD371C1
:101BE0001E9B624083EA0B03960146EA93669B01C3
:101BF00043EA9263069C249A82EA0405079C259A8C
:101C0000624088EA0E0E4FEA426848EAD5186D062F
:101C100045EAD215089C209ACDF868E05440219AF4
:101C20007A404FEA022E4EEA146E240244EA12640D
:101C3000019F269A7A40279F87EA09094FEA894738
:101C400047EA923725EA030A920442EA99328AEA7D
:101C5000010A28EA060989EA0C09CDF878A024EAE5
:101C6000050ACDF87C908AEA030A2EEA080923EADD
:101C7000010389EA0609534026EA0C06CDF880A044
:101C800022EA040A8AEA0505CDF88490269327EA19
:101C90000E0986EA07032295279389EA08052E9BF9
:101CA000239521EA0208089A83EA0201099A2F9BE8
:101CB00053402CEA07054FEAC36C4CEA511CC90695
:101CC00041EA531188EA04042A9B019A249485EA84
:101CD0000E045A4025942B9B029C059F6340160FCF
:101CE00046EA03161B0F43EA0213039C309A82EA6A
:101CF0000405049C319A62404FEA822848EA9558CC
:101D0000AD0245EA92552C9A82EA0B042D9A7A404C
:101D10004FEAC23E4EEA544EE40344EA5244069F60
:101D2000289A82EA0709299A079F7A404FEA1927D9
:101D300047EA026725EA060A120A42EA09628AEAC3
:101D4000010A28EA030989EA0C09CDF8A0A024EACF
:101D5000050A8AEA060ACDF8A4902EEA080989EA5B
:101D60000309CDF8A8A027EA040A8AEA0505CDF8F8
:101D7000AC9023EA0C0322EA0E0953402C9526EA84
:101D8000010689EA08052D9521EA0708319386EABC
:101D900007013A9B30912CEA020505993B9A029F74
:101DA000DDF8109083EA0B034A404FEA930C4CEAAB
:101DB000827C920842EA83720699369B88EA040480
:101DC0002E9485EA0E044B402F943799079C5D0AA8
:101DD00081EA040645EAC655760A46EAC3560899DA
:101DE000329B099C4B4033994FEA53684C4048EA78
:101DF000C418640E44EAC3140199389B4B403999C6
:101E00004FEAD35E79404EEA412EC90D41EA4321A3
:101E1000039F349B7B40359F87EA09094FEA890776
:101E200047EA93779B0043EA997328EA050A24EA74
:101E3000060989EA02098AEA0C0ACDF8C8A0CDF899
:101E4000CC902EEA080A21EA04098AEA050A89EAFE
:101E50000609CDF8D0A0CDF8D49023EA0E0A27EADF
:101E600001098AEA080889EA0404CDF8D880379481
:101E70002CEA030822EA070425EA0C056B4088EAED
:101E80000E0E6140CDF8E0E039913A93009B10339B
:101E9000009326EA02063D4B009A934286EA070623
:101EA0007FF4F0A90A9B03600B9B43600C9B83604B
:101EB0000D9BC3600E9B03610F9B4361109B83616D
:101EC000119BC361129B0362139B4362149B836249
:101ED000159BC362169B0363179B4363189B836325
:101EE000199BC3631A9B03641B9B43641C9B836401
:101EF0001D9BC3641E9B03651F9B4365209B8365DD
:101F0000219BC365229B0366239B4366249B8366B8
:101F1000259BC366269B0367279B4367289B836794
:101F2000299BC3672A9BC0F880302B9BC0F8843064
:101F30002C9BC0F888302D9BC0F88C302E9BC0F8AD
:101F400090302F9BC0F89430309BC0F89830319B74
:101F5000C0F89C30329BC0F8A030339BC0F8A4304E
:101F6000349BC0F8A830359BC0F8AC30369BC0F825
:101F7000B030379BC0F8B4303A9BC0F8B8E0C0F836
:101F8000BC10C0E930363DB0BDE8F08F08364000E7
:101F90002DE9F04104460D4616465F420A4B98472C
:101FA000FFB22046691E2644B04203D1BDE8F0418D
:101FB000064B1847027811F8013F53403B405A4006
:101FC00000F8012BF0E700BFA12740008127400067
:101FD0002DE9F041194F00268B784D780C781B04C1
:101FE00043EA0523234307EA530403EA070507EA04
:101FF000930323442B4400EB460E0324A4F1030C6B
:1020000023FA0CFC23FA04F80CF0070C08F007087C
:102010000AB9AEF80020BEF9005006346544A5EBBD
:1020200008051B2C2EF8025BE8D10436B6F5807F3C
:1020300001F10301D0D1BDE8F08100BF4992240035
:10204000F0B500260C6804F05533640804F05534EC
:102050001C4400EB46070225AB1E24FA03F324FAC6
:1020600005FC03F003030CF0030C02B93A80B7F946
:1020700000E0A3EB0C0304357344222D27F8023B48
:10208000EAD10836B6F5807F01F10401DAD1F0BD5E
:102090002DE9F04FE3B01C466C9BDFF878900646C4
:1020A0000F461546002B2ED00023214630A8C847E6
:1020B000DFF8648030AA012105A8C047DFF85CA0E2
:1020C000DFF85CB0CDF800A030AB019303AA05ABFC
:1020D00039463046D8476C9BC3B101232A46214676
:1020E00030A8C84730AA012105A8C04730ABCDE9C8
:1020F00000A30C4C05AB03AA07F500713046A047BE
:1021000063B0BDE8F08F13466C9ACEE72B460122F0
:10211000E5E700BF652140000D1040004434400059
:10212000CD224000CF22400010B50C4A13680BB9F5
:102130000B4B1360136801440024884203D104B19F
:102140001360002010BD83EA433383EA534383EADC
:10215000431300F8013B0124EFE700BF000000201B
:1021600078563412F0B58BB006460C4601AF01F13B
:10217000200C206861683D4603C5083464452F463D
:10218000F7D18DF824208DF825302222024B01A9A9
:10219000304698470BB0F0BDE10F4000F0B58BB072
:1021A00005460E4601AF02F1200C106851683C460E
:1021B00003C4083262452746F7D18DF82430044C19
:1021C000212301AA31462846A0470BB0F0BD00BF2D
:1021D0001D10400070B5B4B00E4B04460E46684664
:1021E00015469847314668460B4E2022B04729468F
:1021F0004FF440726846B0476846084B98476A46B5
:1022000020212046064B9847064B6846984734B035
:1022100070BD00BFA50F4000AD0F4000C10F4000D2
:10222000CD0F4000DD0F400044F6BE6343439B0EDC
:1022300040F6015202FB130080B2704770477047AE
:102240007047704730B5002432F8145031F814301C
:102250002B449DB21BB2B3F5506FC2BF6FF45063F5
:10226000EB181BB220F814300134802CECD130BDB7
:1022700030B5002432F8145031F814305B1B9DB295
:102280001BB2002BBCBF05F601531BB220F8143063
:102290000134802CEED130BD5B4270B51BB20238E8
:1022A0000025954200D170BD30F9026F31F815401C
:1022B00074401C40664006800135F2E7004B184729
:1022C000AD094000004B1847BD09400070477047FA
:1022D00010B50246014400208A4200D110BD12F818
:1022E000013B0824584043B2002BBABF5B0083F087
:1022F0004D034300013CD8B2F5D1EDE730B50022E3
:10230000044601238B4201D3002030BD14F8015F45
:1023100015B99D1A85541A460133DBB2F2E730B580
:1023200004780025024605702046884200D204B990
:1023300030BD145C15540319D8B2F6E7F8B50C4D4E
:102340002B681F2B04DD61200A4B98470120F8BD44
:10235000F82901D96220F7E7074F0C245C433E19A6
:1023600001333855C6E901122B600020EFE700BFAA
:10237000440E002021274000C40C002010B5064C5C
:10238000064A00217620A0472346054ABDE81040B2
:1023900000217720184700BF3D234000192440004A
:1023A00039244000F0B50C46C1B011464AB322466C
:1023B000154B8DF8050000250DF107008DF806403E
:1023C0008DF804509847A11C104B114FC9B20DF164
:1023D0000500984704F580736B44261D03F8F90C3B
:1023E00006F580736B44611D03F8FC5CC9B2094BB0
:1023F00001A8984701AC14F8010B0135B847AE426B
:10240000F9DA41B0F0BD00BF112D4000D1224000EB
:1024100021274000FD22400007B503238DF8073037
:102420000DF10702034B012172209847002003B0F1
:102430005DF804FBA523400030B50D4B0D4819781D
:1024400089B000220C24D3B28B4202F1010206DBD8
:10245000094B6A4672209847002009B030BD03F14D
:10246000200563436D44C35C05F8203CEBE700BFE7
:10247000440E0020C40C0020A52340002DE9F047A5
:10248000C0B0002401ADDFF8ECA08DF80340A846F1
:10249000D04705F8010B58B905208DF80300364BDD
:1024A0000DF1030201216520984740B0BDE8F08797
:1024B0000134042CECD12146DFF8C0904046C847D7
:1024C0002F4B9DF805101A6806462E4800230C2550
:1024D000DFB2974202DB08D10120DEE705FB07FCF3
:1024E000013310F80CC08C45F2D19DF8073005334C
:1024F000B34202DA0420D0E72C46D04708F80400A3
:102500000028C9D09DF80730651C0433AB42F3DACC
:10251000D04705F580736B4403F8FC0C0028E9D123
:10252000C6F1010353FA85F1C9B25FFA85FA08EBE7
:102530000600C847AAF10201134BC9B20DF105000C
:10254000984704F580730DEB030414F8FC3C8342B8
:102550000DD10C4B9DF806109DF805000C2202FBD6
:1025600007339DF807209C6802ABA04795E702203F
:1025700093E700BF3D274000A52340001F234000F4
:10258000440E0020C40C0020D1224000FEE70000D1
:1025900019491A48814210B520D9194BDA1C121A70
:1025A00022F00302C41E9C4288BF0022154B9847AC
:1025B00000BF154B1548DA1C121AC11E22F0030287
:1025C000994288BF0022124B00219847114B124AB2
:1025D0009A60124B9847124B9847FEE7E8D2084B97
:1025E0000A1F181A1044C1F10401C842E0D050F883
:1025F000042943F8042DF8E730364000000000209D
:1026000008000020112D4000480E00200800002086
:102610006D2C400000ED00E0000040001D2C40004B
:1026200059024000184B4FF4004270B500205A6523
:10263000164C174D174EA0470120A0470520A04774
:10264000154B002098471548A847154B0020984780
:10265000144B3E2101209847B0470028FCD0124B74
:1026600000209847114B98471148A847114A136812
:1026700023F0806313600B20A047BDE870400E4B31
:102680004FF060510F20184700140E40C52B40003A
:10269000812A4000B52B4000012C4000000E270786
:1026A000E52A4000692B4000252B4000B529400059
:1026B00010757000000A0E40112940001FB5104B24
:1026C000104C4FF46132CDE901324FF400630393B3
:1026D00008200D4B984701A90C4B204698472046EF
:1026E0000B4B98470B4B204698470B4C0B49092046
:1026F000A0474FF000610A20A04704B010BD00BF02
:1027000090AD710000060E40C52B4000C12740006F
:10271000FB274000F5274000112940000100000878
:1027200070B5044E044D044621463046A8470028A3
:10273000FAD170BD00060E400128400037B5064DA5
:10274000064C0DF107012846A0470028F9D19DF855
:10275000070003B030BD00BF00060E400F28400048
:1027600010B5054B0B209847BDE81040034B4FF0C8
:1027700040510720184700BFC52B400011294000D9
:1027800010B5054B07209847BDE81040034B4FF0AC
:1027900040510720184700BFF7284000112940008A
:1027A00010B5054B07209847BDE81040034B4FF08C
:1027B00060510720184700BFDF2840001129400062
:1027C000AC2310B50360D1E90032B3FBF2F31B096F
:1027D0005C1E4FF6FE7294420AD803628B68436017
:1027E00040F20223C0F8203150230360002010BDC6
:1027F0000120FCE74023036070471023036070470B
:1028000043699B0746BFC1610020012070474369AF
:10281000DB0743BF83690B70002001207047B1F1D3
:10282000C05F426426D007D8B1F1006F11D0B1F17A
:10283000805F1CD0C9B97047B1F1005F23D014D3B9
:10284000B1F1405F12D021F08051B1F1205F0CD185
:102850007047016F036F0B4023EA02030367416F68
:10286000436F0B4023EA0203436742607047036FE4
:102870001343F3E7016F036F0B4023EA020303677F
:10288000436F1343F0E7036F1343F8E7D307416443
:102890004CBF4166016612F00A0F07D09307016230
:1028A00008D4130748BFC0F8841000E041624161BA
:1028B00001607047C0F88010F9E710B5029C4164D0
:1028C0003CB141663BB101653AB101630161016010
:1028D00010BD0166F6E74165F6E74163F6E7430997
:1028E00003F5001303F207735B0200F01F000122DF
:1028F00082401A637047430903F5001303F207731C
:102900005B0200F01F00012282405A637047000002
:1029100037B5044640090D4600F5001001F0F041BE
:1029200000F20770B1F1005F4FEA40201FD00BD8D2
:10293000B1F1805F1BD0B1F1C05F18D0B1F1006F71
:1029400015D0002003B030BD05F0E043B3F1405F87
:1029500017D0B1F1205FF4D104F01F040121124B14
:102960002A46A140984700E002660120EAE704F009
:102970001F040122A2400D4B9847EC07F4D5426694
:10298000F3E705F0605202F148414A4205F00103C5
:1029900004F01F044A4101210093A140C5F38003C4
:1029A000034CA047E1E700BF8D2840001F284000EE
:1029B000BB28400010B52C4A2C4B116B01F00301D1
:1029C00001292AD0023901291DD8116ACC0148D425
:1029D00027491960116A01F0700110293ED02029A1
:1029E0003FD0106B196800F0030002280BBF946AF7
:1029F000D46A906AD06AC4F30A4404FB0111C0B2DD
:102A0000B1FBF0F107E01B49496A08064CBF4FF4DF
:102A100000414FF4FA4119600DE0116AC90101D576
:102A20001549F8E712491960116A01F0700110297F
:102A300012D02029F4D0106B196800F070007028B3
:102A40001BBF126BC2F30212032221FA02F208BF6B
:102A5000B1FBF2F21A6010BD0849DCE707491960C2
:102A6000BFE70549FBE700BF00040E40040000205B
:102A700000093D0000140E40001BB70000127A0050
:102A80000E4B98420E4B03D84FF080621A6070478D
:102A90000C4A904201D20C4AF8E70C4A904201D20B
:102AA0000B4AF3E70B4A904201D80B4AEEE70B4A78
:102AB00090428CBF0A4A4FF00422E7E7FF2C310115
:102AC000000A0E40005A62020001000400879303CE
:102AD00000020004FFB3C40400030004FFE0F50596
:102AE000000500040E4B1A6B22F003021A6340F635
:102AF0000102996E09070BD51A6B22F07002104380
:102B0000186340F60102996E090705D50020704749
:102B1000013AEED101207047013AF4D1FAE700BF43
:102B200000040E400F4B1A6B22F0030242F0010228
:102B30001A6340F60102996E09070BD51A6B22F051
:102B400070021043186340F60102996E090705D51B
:102B500000207047013AEED101207047013AF4D1CC
:102B6000FAE700BF00040E400F4A30B1136A0F4964
:102B700019400F4B0B4313627047106A0B0220F48D
:102B80005C119BB221F003010B4343F45C1343F04F
:102B900001031362936EDB07FCD5136A43F09B734A
:102BA00043F48033E7E700BF00040E40FCFFC8FE9B
:102BB00002003701024B986E00F48030704700BF6E
:102BC00000040E40222816D81F280C4A4FF001039B
:102BD00007D89169834033EA010118BF13610020CF
:102BE0007047D2F808112038834033EA0101F6D04B
:102BF000C2F80031F3E70120704700BF00040E4027
:102C0000034B18B1034AC3F8E4207047024AFAE7BD
:102C100000040E4001434D5000434D5070B50F4B22
:102C20000F4DAB42A3EB050607D0B610002455F8B4
:102C3000043B01349847A642F9D800F0E5FC094D61
:102C4000094B5E1BAB424FEAA60606D0002455F89E
:102C5000043B01349847A642F9D870BD14364000B1
:102C6000143640001436400018364000830730B553
:102C700047D0541E002A3ED0CAB2034601E0013CB0
:102C800039D303F8012B9D07F9D1032C2CD9CDB2F0
:102C900005EB05250F2C05EB054535D9A4F11002F0
:102CA00022F00F0C03F1100EE6444FEA121C1A46F4
:102CB000C2E90055C2E9025510327245F8D10CF153
:102CC000010214F00C0F03EB021204F00F0C13D0EE
:102CD000ACF1040323F003030433134442F8045B10
:102CE0009342FBD10CF003042CB1C9B21C4403F88D
:102CF000011BA342FBD130BD64461346002CF4D126
:102D0000F9E703461446C0E71A46A446E0E700BFC9
:102D1000844641EA000313F003036DD1403A41D3E6
:102D200051F8043B40F8043B51F8043B40F8043BA5
:102D300051F8043B40F8043B51F8043B40F8043B95
:102D400051F8043B40F8043B51F8043B40F8043B85
:102D500051F8043B40F8043B51F8043B40F8043B75
:102D600051F8043B40F8043B51F8043B40F8043B65
:102D700051F8043B40F8043B51F8043B40F8043B55
:102D800051F8043B40F8043B51F8043B40F8043B45
:102D900051F8043B40F8043B51F8043B40F8043B35
:102DA000403ABDD2303211D351F8043B40F8043BD5
:102DB00051F8043B40F8043B51F8043B40F8043B15
:102DC00051F8043B40F8043B103AEDD20C3205D3E5
:102DD00051F8043B40F8043B043AF9D2043208D0DD
:102DE000D2071CBF11F8013B00F8013B01D30B884F
:102DF00003806046704700BF082A13D38B078DD02D
:102E000010F003038AD0C3F10403D21ADB071CBFFE
:102E100011F8013B00F8013B80D331F8023B20F868
:102E2000023B7BE7043AD9D3013A11F8013B00F8A1
:102E3000013BF9D20B7803704B7843708B78837029
:102E400060467047B8AF1300B8AF13004B3A0A7B27
:102E5000B8AF1300A97413034B3A0A7B9C1B993932
:102E6000B8AF130078F0C9BEA9741303A6928DCF32
:102E70004B3A0A7BEFE91E6E9C1B9939318DD43495
:102E8000B8AF13004B3A0A7BB8AF1300A974130311
:102E90004B3A0A7B9C1B9939A0E82F9133704D1156
:102EA000E6587CAFE28719B4DBE36D6B4B3BFD2347
:102EB000309A2BC99943919F1D8FBB79D078DDC083
:102EC000C40F33680D6205BAE751D710F1CBA4A146
:102ED0008DDDBF4155B3E4628BF76D6A3B05BC7372
:102EE000A4AD2EA12BD160159B214B2FB8AE20573E
:102EF0003740BD6378F0C9BE1D8FBB795A713ED48F
:102F0000D078DDC065E09A22C40F33689576FA4721
:102F10009C19B3E7AE2CBB7E4F00FC3328FB3ECDA3
:102F20004E0C601F373ED71129EC01E77CB8A1C9D0
:102F300002F2B5C2000A7E99327BBE53098FBC6C87
:102F40005C5976FD50F67D9A6D7CAE230A890A772E
:102F5000B0111AAD6F69A5997BC3120C3279D801F3
:102F6000318BEEE2C7EFD2498FBF4575A9741303C9
:102F700078F0C9BEEFE91E6E1D8FBB79705C4E05FF
:102F80005A713ED406B6C12901F95A61382EA7827A
:102F900016E83636AD381F6A5E43947803DBE0945A
:102FA00094862AD772382243705C4E053FD15F2247
:102FB000B6C7DBD622494947476D7323FF12098AFA
:102FC000C6F76A9179E18CD8D72055ADD53A03D6AA
:102FD00074214D1524318170103A0D5491AD2F9408
:102FE00062121122A6928DCF02F2B5C2BB8628F1E1
:102FF000000A7E99E28FB1FB327BBE53C13FC315FD
:1030000017E09EEEA4B6B9917603D348808904C533
:103010006C8AF860E37BB5C8CDA0D526705B5B5C9D
:103020002CD06D6C8DE27E8EB3EB0799BC76F86187
:10303000588DD24EB015E6506F63F3A3A785363B8B
:10304000FB4665DB16E284402617D3477053C31452
:10305000E19DFB387609853E07AB50E74B3A0A7B8A
:10306000A97413039C1B993978F0C9BEA6928DCF21
:10307000EFE91E6E318DD43447713FC7F1C7D8FDDB
:10308000F3B2E921993DDFA9DAF5834CE19FE18AAA
:10309000F8699EF401FB40B35A713ED465E09A2270
:1030A0009576FA47C1372BCE1AB6C036F8731C8E08
:1030B0009C1E72348CE8308469B1FD1DD355A4A7E1
:1030C00055B8A3AFD168AD312CCD9471976018C3BA
:1030D000C40E40BFEFE91E6E705C4E0506B6C129F6
:1030E0003FD15F22CBB1F85EB6C7DBD65F345792D3
:1030F000FA587BBCAC4669A7EFE64573D80A73283B
:103100003A15EC02B8B1F951FA50E374A3C403CFF5
:10311000BB8628F1E28FB1FBC13FC315383366CFC0
:103120009E00F8679C18C03E52D803CE975F251AC0
:10313000835E336478EFD61568C406A8AA6A9569D9
:103140001AB00E416AAA587F0A844B2A9C1B9939EF
:10315000A6928DCF318DD43402F2B5C22CD06D6CD5
:10316000BB8628F1270D55AE55BA890153C9C6E76C
:10317000261D853DF8740F37CE8DCC9C99466A9AF2
:103180002528F67FC5079B2006B6C129CBB1F85E7E
:103190005F3457922DC03DDDEC06A691D814F1C1E5
:1031A0009941AB4D2438260FD80B66D17BC5F85D0D
:1031B000B5D9F1B72BDBDEAE2804CABD993ED25299
:1031C0001BA690A7318DD4342CD06D6C270D55AE35
:1031D0008DE27E8EE565D343B3EB0799F0D33CE9EE
:1031E000F4A86B880D5B601BF965D250FC390E4763
:1031F000C7EEDFA04E0F391AFA4EFD222064EA18FE
:10320000270D55AEE565D343F0D33CE9F3B1F6782D
:10321000DDCD8BE6732AD805F4A1C6E95A732426BE
:103220003DE741A70006B2F588214C22EEEFD063BE
:10323000233DE55B1E7DA5986C8DD15B00000000F1
:1032400000000000B6C5F58465E466C6588BECFC4A
:10325000D0722BCB5B6D72301216E191890F364123
:10326000DAF2AA51D52F92934679D70EFF0D4A3D37
:10327000FB493ED691A3B1FAA78EC12BE4704486D8
:10328000112CC3160D5E3916243274192EAB4E0163
:10329000122152D4AE2AD52CD440B5CB1C9A2CBCCA
:1032A0008ED527FA0E4E0987CD9FE27DFB429937D6
:1032B0003277F2AF140897544E14F866929C0C5C67
:1032C000A9722DB174205A6C242DB5CC9D0D4FFCE4
:1032D000EEEDEA11741D817151EA19AF4589079E1F
:1032E000A0E9223AA1DCCBA50B79DAE71E7F8BEAB5
:1032F00040C03CEAAF27FC3163FF079816EDF5822A
:10330000D53BF67E215979D6B3F492891F704E04CD
:1033100065E73FC1C9CC993040C4088E0B7235496E
:10332000B5D159700E56A1CECF8441AC948351DCF7
:10333000A5A68902BB85354887317CB1F2BC67BB45
:10334000D71AA3B701F68166B1098265F870439375
:1033500025205E384D19B7B301F49B143CFA4A316D
:10336000A2CBA86D68BE54B215F9596ED43ECF7980
:103370005C54B7B05F2EA59CE92E9EF7364E07A190
:1033800029EB0E3ED43FC222AA65D61C2F9D04C451
:10339000588FB8A0881D807E4B3824293B08956E35
:1033A000BA928CDC92A2BE518BF58718AB5D3ED5EC
:1033B0005799363AC22EA0DD02EDF675DFB6B6B8E3
:1033C000CBBC69A1EC10242BB9A4A2BD6D807AC737
:1033D0006C8905B865E18DCBE7493FC9E0A4A0D76A
:1033E000588AF953B99DFD1E0F3DE64E9C1F65DDC1
:1033F000098CE37140C8D431E28BE55754BE55A522
:1034000019BD65D5C32422443DF0CC97742240BE3B
:103410001AAE28EFB2F76B8451E8335D984C1C90DC
:10342000364C214F3187223F10345B5EF49DFA45C4
:10343000AC4942A2BA8FB3E10B750E44327DA4A50C
:10344000000000002EAB4E01122152D4AE2AD52C22
:10345000D440B5CBCD9FE27DFB4299373277F2AFB6
:103460001408975474205A6C242DB5CC9D0D4FFC34
:10347000EEEDEA11A0E9223AA1DCCBA50B79DAE75F
:103480001E7F8BEA16EDF582D53BF67E215979D663
:10349000B3F4928940C4088E0B723549B5D1597086
:1034A0000E56A1CEBB85354887317CB1F2BC67BBD7
:1034B000D71AA3B725205E384D19B7B301F49B1472
:1034C0003CFA4A31D43ECF795C54B7B05F2EA59C0C
:1034D000E92E9EF7AA65D61C2F9D04C4588FB8A06C
:1034E000881D807E92A2BE518BF58718AB5D3ED5BC
:1034F0005799363ACBBC69A1EC10242BB9A4A2BDD4
:103500006D807AC7E0A4A0D7588AF953B99DFD1EF3
:103510000F3DE64EE28BE55754BE55A519BD65D566
:10352000C3242244B2F76B8451E8335D984C1C905D
:10353000364C214FAC4942A2BA8FB3E10B750E4411
:10354000327DA4A500000000010000000000000082
:1035500082800000000000008A80000000000080DF
:1035600000800080000000808B80000000000000D0
:1035700001000080000000008180008000000080C9
:1035800009800000000000808A00000000000000A8
:10359000880000000000000009800080000000009A
:1035A0000A000080000000008B8000800000000006
:1035B0008B00000000000080898000000000008077
:1035C00003800000000000800280000000000080F6
:1035D00080000000000000800A8000000000000061
:1035E0000A000080000000808180008000000080D0
:1035F00080800000000000800100008000000000CA
:103600000880008000000080F8B500BFF8BC08BC4E
:103610009E46704735014000F8B500BFF8BC08BCB5
:083620009E4670470D014000B9
:08362800E8F6FF7F010000003D
:083630007856341200093D0038
:040000050040259101
:00000001FF
