:020000040040BA
:1000000018200020D1244000CD244000CD24400001
:10001000CD244000CD244000CD244000000000004D
:10002000000000000000000000000000CD2440009F
:10003000CD24400000000000CD244000CD2440002D
:10004000CD244000CD244000CD244000CD244000EC
:10005000CD244000CD244000CD244000000000000D
:10006000CD244000CD24400000000000CD244000FD
:10007000CD24400000000000CD244000CD244000ED
:100080000000000000000000CD244000CD2440000E
:10009000CD244000CD244000CD244000CD2440009C
:1000A000CD244000CD2440000000000000000000EE
:1000B00000000000CD244000CD244000CD244000AD
:1000C000CD244000CD244000CD2440000348044B03
:1000D000834202D0034B03B118477047D02F400032
:1000E000D02F4000000000000548064B1B1AD90F16
:1000F00001EBA301491002D0034B03B1184770472D
:10010000D02F4000D02F40000000000010B5064C5A
:10011000237843B9FFF7DAFF044B13B10448AFF378
:1001200000800123237010BD0400002000000000A7
:10013000D02F400008B5044B1BB104490448AFF36D
:100140000080BDE80840CFE7000000000800002064
:10015000D02F400030B5ADF2644D08AD04460D4AD5
:100160000D4B6946284698470C4B4FF48862294648
:10017000204698476A4604F14003144603CCAC423B
:1001800018605960224603F10803F6D10DF2644D60
:1001900030BD00BF2000002031034000312C400062
:1001A000CA0738B50C461D4608D50849084B09480A
:1001B0009847084A084BA02172209847A30702D508
:1001C000064B28469847002038BD00BFC0040020D9
:1001D0009902400020000020F92240005501400013
:1001E00008B50F4B0F4C98470F4B98470F4B98474C
:1001F0004FF4946200210E48A0474FF4166200218C
:100200000C48A0470C4B0D4C98470D4A002101208B
:10021000A0470B4A00210220A0470A4CA047FDE757
:100220004D2540008D2B4000E525400081264000F3
:1002300020000020C0040020D12240009122400074
:10024000A1014000C923400070B5104B0C46064682
:10025000154698470E4B4FF49462314604F5906072
:1002600098470C4B04F512604FF49462314698475E
:1002700004F5146405F12003403553F8042B44F8C9
:10028000042BAB42F9D1002070BD00BF55044000E3
:10029000312C4000C50F400030B591B004460D46EA
:1002A000054B402168469847044B6A46294620463C
:1002B0009847002011B030BDB521400049024000F0
:1002C000F0B5A1B006460C4615466F4603F1200C6A
:1002D000186859683A4603C2083363451746F7D190
:1002E0002946104B4FF4946208A8984740220DEB22
:1002F00002000D4B694618AF98472A463B460B4D06
:1003000069463046A84710AD22462C4603CCBC4275
:1003100010605160254602F10802F6D1002021B09C
:10032000F0BD00BFC50F40000D1040008905400022
:1003300070B588B004460D461646064B2021684627
:1003400098476B46324629462046034CA04700207A
:1003500008B070BDB5214000C1024000F0B50746AD
:10036000C2F1030E002092F801C01678957846EA93
:100370000C26C6F30B06B6F5506FD6BF441C0446D8
:1003800027F810608C4212D22D0145EA1C15B5F5F4
:10039000506F05DC601C814227F8145001D8F0BD75
:1003A000204603320EEB0204A342DCD2F7E72046DC
:1003B000F5E700002DE9F04FADF5337DDFF88490CF
:1003C000DFF884A000900F4601920026009A4FF4B7
:1003D000C06303FB06280025019B1C4CEAB2F1B266
:1003E0000BB313460A46394602A8A04708EB452B33
:1003F00002AA032134A8C8474FF4FC7334AA4FF46F
:1004000080715846D0470446FF2C0ED9104B02A8E5
:1004100001359847032DDFD10136032ED6D10DF5D6
:10042000337DBDE8F08F0B46DDE702AA012134A839
:10043000C847C4F580710BEB4400A82334AAD04709
:100440000444E1E7690F40005D034000D51E400011
:10045000790F40002DE9F04FADF5115D81B00646F2
:100460000F466C466D4602F1200C106851682B4611
:1004700003C3083262451D46F7D14FF00309394BDB
:1004800084F8209021222146204604F12005984737
:10049000354BDFF8D880DFF8D8B0DFF8D8A00022DD
:1004A00021460DF592509847294600220DF54460EB
:1004B000C047294601220DF56460C0472946022243
:1004C0000DF58250C0474A46294610A8C047294624
:1004D000042290A8C047294605220DF58860C04730
:1004E000254D0DF54460A84710A8A8470DF5C8682C
:1004F0000DF592554FF00009294640460DF544622E
:10050000D84709F101094046D047B9F1030F08F572
:10051000007805F5C065EFD10DF5C86110AA084651
:10052000164B174D9847174B0DF5C86098470DF5BA
:1005300044613846A8470DF5C8613046A84706F51E
:10054000906304F12005224603CAAA42186059604C
:10055000144603F10803F6D10DF5115D01B0BDE8B5
:10056000F08F00BF0D104000B5034000510840005F
:10057000F10A4000F5084000B10A4000690B400054
:10058000610A4000490B40002DE9F041ADF5405DA6
:1005900088B01646074688461D461146484B0DF55D
:1005A0004260984708AC06F59063EC4606F5946601
:1005B00018685968624603C20833B3429446F7D1BB
:1005C000414688A83F4B404E9847404BA4F120013C
:1005D0000DF5F1500122984729460DF5C46000221F
:1005E000B04729460DF502600122B04729460DF5B6
:1005F00022600222B047364E29460DF59150032263
:10060000B04729460DF5A1500422B04729460DF503
:10061000B1500522B047294606220DF58460B04747
:100620002C4B2D4D0DF5C46098470DF5C4620DF5AA
:10063000F1510DF5C150A8470DF510510DF5C462EB
:100640000DF5D1502031A8470DF528510DF5C462A4
:100650000DF5E1502031A8470DF5C4620DF542615A
:100660002046A8470DF5C1501C4B1D4D984720460C
:100670001C4B98470DF5C1511B4B0DF59152084687
:1006800098470DF5846221462046A84788AA21464E
:100690002046A8470DF5C150144B98472046144BEF
:1006A00098470DF5C1513846124B9847124B2146D9
:1006B00007F5846098470DF5405D08B0BDE8F0810E
:1006C000890A40001108400051084000B50340006D
:1006D00079084000B10A4000F10A4000D10A400008
:1006E00051094000A1084000690B4000490B40003F
:1006F000190940006D094000FD064000F7B50530BE
:100700000A46002440F6015549F67E566F4602F12E
:10071000100132F902CB05EAEC7363441BB25B01B2
:1007200003F5D0637343DB0E914207F8013BF0D130
:100730009DF801309DF800209DF8037042EA4312B5
:1007400000F8052C9DF80220DB0843EA820343EA07
:10075000C71300F8043C9DF804301A0142EA57021E
:100760009DF8057000F8032C1B099DF8062043EA4C
:10077000470343EA821300F8023C9DF807309208D1
:10078000083442EAC302B4F5807F00F8012C00F17E
:10079000050001D00A46B9E703B0F0BDF0B500226C
:1007A00040F601568F1C31F9223031F8224037F9DA
:1007B000225006EAE3731C4437F8223006EAE57556
:1007C0002B449BB2A4B21D01013204701B0945EAFF
:1007D0001424802A4470837000F10300E3D1F0BD3B
:1007E00030B50023841C4D780A7842EA0522C2F312
:1007F0000B0220F823208A784D78120142EA151264
:1008000024F823200133802B01F10301EBD130BD0B
:100810002DE9F0470024DFF834A007468846A146BA
:1008200007EB04160025304626F8029B18F8042032
:100830002A4102F0010240F281610135D047082DC2
:10084000F1D10134202CEBD1BDE8F087451F4000E9
:1008500030B5A1B00446134668460A46044D8021CF
:10086000A847044B69462046984721B030BD00BFD9
:100870000D1F4000B51F400030B5A1B0044613461F
:1008800068460A46044D8021A847044B6946204625
:10089000984721B030BD00BF0D1F4000BD1F400074
:1008A000004B18472D0C40002DE9F0470F4FDFF8A3
:1008B0004090061D0D1D141D07F1800A37F9028FA7
:1008C000221F291F301F4346C847C8F10003224694
:1008D000294630461BB2C847574506F1080605F1C0
:1008E000080504F10804E9D1BDE8F087E22D4000D5
:1008F000D90C4000F8B5074E851E00F5FF7440F294
:10090000495735F9020F7843B047A5422880F8D1FE
:10091000F8BD00BFE921400070B5054E851E00F509
:10092000FF7435F9020FB047A5422880F9D170BD98
:100930000522400010B5044B044698472046034B5F
:10094000BDE81040184700BF950B40001909400052
:1009500030B5002331F8134032F813502C4420F8FE
:1009600013400133B3F5807FF4D130BDDFF8ECC024
:100970002DE9FF47002440F6015900F10B0201EB7D
:10098000041600255EE03EF902AB09EAEA7353441F
:100990009BB2DB0213F5D063A3FB0C3ADB0F43EAF7
:1009A0004A030137C3F30A03082F28F8023BEAD1B0
:1009B000BDF802E0BDF8007002F80B7C4FEACE03F0
:1009C00043EA1723BDF8047002F80A3CBB0143EA6E
:1009D0005E13BDF8068002F8093CBB08BDF808E0CC
:1009E00002F8083C4FEA480343EA972302F8073C21
:1009F000BDF80A704FEA0E1343EAD81302F8063C1A
:100A0000FB0143EA1E13BDF80CE002F8053C7B082D
:100A100002F8043C4FEA8E0343EA572302F8033CF2
:100A2000BDF80E3008355F0147EA9E17DB08B5F5C3
:100A3000807F02F8027C02F8013C06F1100602F108
:100A40000B0203D0E846B64600279CE72034602C12
:100A500000F5B07091D104B0BDE8F087DCD7090093
:100A600070B5084E04460D46B04705F5007104F513
:100A7000C070B04705F5806104F540703346BDE8AD
:100A8000704018479D07400070B5084E04460D465B
:100A9000B04705F5C07104F50070B04705F5407129
:100AA00004F580603346BDE870401847E107400018
:100AB00070B5064D0446A84704F50070A84704F534
:100AC00080602B46BDE87040184700BF35094000E4
:100AD00070B5064D0446A84704F50070A84704F514
:100AE00080602B46BDE87040184700BFA108400059
:100AF0002DE9F041114FDFF84880ADF5007D0D463E
:100B000016460446B84706F5007205F500716846BA
:100B1000B8476A4621462046C04706F5806205F57B
:100B200080616846B8476A4621462046C047054B63
:100B3000204698470DF5007DBDE8F081A9084000EA
:100B4000510940001909400070B5064D0446A847F8
:100B500004F50070A84704F580602B46BDE870409E
:100B6000184700BF190940002DE9F041DFF8208047
:100B700005460E46174600243A193119281904F57E
:100B80000074C047B4F5C06FF6D1BDE8F08100BF76
:100B9000510940002DE9F04F064685B04FF0070996
:100BA0004FF0010880251F4B03EB48026B1C00240B
:100BB000009305EB040A32F9021B08F1010806EB69
:100BC0004A0306EB4407A346B3F9000002934843E7
:100BD000154B039201919847B7F900C0029B019908
:100BE000039A80B2ACEB000C23F802CB37F802CBAF
:100BF0000BF1010B6044D34527F8020CE4D3611CD0
:100C00006B1E8A4538BF002300990C441C44FF2CFE
:100C1000CFD9B9F101094FEA5505C4D105B0BDE8F6
:100C2000F08F00BF642D4000E92140002DE9F04F16
:100C3000044685B04FF007094FF07F080227234B89
:100C4000002503EB480232F90239019305EB070A4C
:100C500008F1FF3804EB450B04EB4A06554518D361
:100C600007EB0A05FF2DEED9B9F101094FEA470755
:100C7000E5D1174EA51E40F2A15704F5FF7435F9D2
:100C8000020F7843B047A5422880F8D105B0BDE8EF
:100C9000F08FBBF80010B6F900000E4B0392084429
:100CA00000B2029198472BF8020B029936F8020B1A
:100CB000019B401A00B226F8020C5843044B984797
:100CC0000135039A26F8020CC8E700BF642D4000E6
:100CD000E9214000052240002DE9F04104469846F4
:100CE00048885388114F10FB03F00E461546B8474D
:100CF000208000FB08F0B84720802B88308810FB4C
:100D000003F0B8472388184420806B88308810FB94
:100D100003F0B84760802B88708810FB03F0B84759
:100D2000638818446080BDE8F08100BFE92140007D
:100D300010B5054BC8220021044698470022002325
:100D4000C4E9322310BD00BF8D2B400073B58DF870
:100D50000720D0E932234D1E002B08BFAA42104EB7
:100D600004460FD19DF8073063F07F038DF80730FC
:100D70000DF107010123B04700220023C4E932230B
:100D800002B070BD01230DF10701B04780238DF83B
:100D900007302A4601230DF107012046EBE700BF8B
:100DA000971040002DE9F84FDFF860A0DFF860B041
:100DB00004460F4616461D464FF000084FF0000946
:100DC000D4E93223A91843F10003B94273F10003B7
:100DD0000CD22B4631462046D047D4E932325B193B
:100DE00042F10002C4E93232BDE8F88FBB1A314645
:100DF0002046D047D4F8C8302046DA1BC4E93289EF
:100E0000FB1A15441E44D847DAE700BF971040008C
:100E1000E91040002DE9F843DFF86880DFF86890BA
:100E200006460C4617461D46A54215D2013CEDB1BB
:100E30002B46002239463046C047A54216D19DF8C0
:100E4000203063F07F038DF820302A46012308A963
:100E50003046C047BDE8F883394623460022304675
:100E6000C0473046C8472D1B2744DDE701232A46EB
:100E700008A93046C04780238DF820302246012340
:100E8000E5E700BF97104000E91040002DE9F0476A
:100E90000D461446D2E93221984695424FF00003A0
:100EA0008B412CBF9246AA4607465346A8EB020246
:100EB0000146DFF848902046C847D4E932625744DB
:100EC000B6EB0A06A5EB0A05DFF834A062F10002D2
:100ED000C4E932620DB9BDE8F0872046D0474545E8
:100EE0002E4628BF46463346002239462046C8478C
:100EF0003744AD1B0022A8EB0606E9E75510400079
:100F0000E91040002DE9F843DFF82880DFF8289049
:100F100005460C4616461F460CB9BDE8F883304618
:100F2000C04729463B4600223046C8473D44013C65
:100F3000F2E700BFE91040005510400073B5084BC0
:100F40000D4616460021C822044698471F230093E9
:100F500020463346034C2A46A821A04702B070BD64
:100F60008D2B4000150E400010B4024CA823A4465F
:100F700010BC6047050F400070470000F0B5B5B0E9
:100F8000044616461F4668460A4B0D4698473B46A0
:100F900032466846084E8821B0476846074B1F22F4
:100FA0008821984720468823054C6A462946A04751
:100FB00035B0F0BD310D4000A50D40004D0D400095
:100FC0008D0E400070B5B4B00D46164604460B4B6E
:100FD0006846984733462A466846094D8821A847FF
:100FE0006846084B06228821984720468823064CED
:100FF0006A462021A04734B070BD00BF310D4000CB
:10100000A50D40004D0D40008D0E400070B5B4B0F0
:101010000D46164604460B4B6846984733462A460B
:101020006846094D4821A8476846084B06224821D2
:10103000984720464823064C6A464021A04734B0D2
:1010400070BD00BF310D4000A50D40004D0D4000AA
:101050008D0E4000F0B50B44521A994200D1F0BDFC
:10106000541824F00706E508064404F00704D6F8EF
:1010700004C050F83550E400C4F12007A4F1200664
:101080000CFA07F725FA04F43C432CFA06F634432D
:1010900001F8014BE1E7F7B50B44521A994201D12F
:1010A00003B0F0BD54184FEAD40C24F0070704F045
:1010B000070411F8016BE4000744A4F12005C4F112
:1010C000200E06FA05F526FA0EFEA6407C6801946D
:1010D00050F83C406640019C40F83C6045EA0E05F3
:1010E0006C407C60DAE700002DE9F04FBDB003688A
:1010F0000A9343680B9383680C93C3680D93036949
:101100000E9343690F9383691093C3691193036A24
:101110001293436A1393836A1493C36A1593036B00
:101120001693436B1793836B1893C36B1993036CDC
:101130001A93436C1B93836C1C93C36C1D93036DB8
:101140001E93436D1F93836D2093C36D2193036E94
:101150002293436E2393836E2493C36E2593036F70
:101160002693436F2793836F2893C36F2993D0F8F7
:1011700080302A93D0F884302B93D0F888302C9389
:10118000D0F88C302D93D0F890302E93D0F8943046
:101190002F93D0F898303093D0F89C303193D0F81A
:1011A000A0303293D0F8A4303393D0F8A8303493E1
:1011B000D0F8AC303593D0F8B0303693D0F8B430A6
:1011C0003793D0F8B8303893D0F8BC303993D0F892
:1011D000C030034A3A93D0F8C430009202E000BF16
:1011E000682E40000A9A149982EA010615990B9A12
:1011F0004A401E994E401F994A4028994E402999CD
:101200004A4032994E4033994A40089216990C9AB6
:1012100082EA01090D9A179982EA0108209A189921
:1012200089EA0209219A88EA02082A9A89EA0209C7
:101230002B9A88EA0208349A89EA0209359A88EAE0
:1012400002080E9A82EA010C0F9A199982EA0107A4
:10125000229A23998CEA020C4F402C9A2D998CEA01
:10126000020C4F40369A37998CEA020C4F40109A84
:101270001A9982EA0105119A1B9982EA01042499BC
:10128000129A4D4025994C402E994D402F994C4033
:1012900038994D4039994C401C9982EA010E139AB5
:1012A0001D995140269A8EEA020E279A5140309A93
:1012B0008EEA020E319A51403A9A4FEA490B8EEA71
:1012C000020E4BEAD87B4FEA480A59408BEA0E02DD
:1012D0004AEAD97A4FEA4C0B01924BEAD77B8AEA69
:1012E000010202928BEA06024FEA470A0392089A29
:1012F0004AEADC7A8AEA02024FEA440A4AEAD57AE2
:1013000004928AEA08024FEA4E0848EAD178490076
:1013100041EADE71059288EA0C02069281EA070230
:101320000792089A710041EAD271520042EAD672DD
:10133000694062404FEA450B089109920A99019A67
:101340004BEAD47B8BEA090B82EA0109029A0B99DA
:10135000179C239E2F9F82EA010A039A16995140F7
:10136000049A0D0D624045EA0235120D42EA01323F
:101370002299059C8BEA010174404FEA515848EAD2
:10138000C428640D44EAC1242E9E06994E40079954
:101390004FEA465E79404EEAD12E49053A9F41EA2E
:1013A000D621089E7E40099F4FEA863C7B404CEA4E
:1013B000934C9B0343EA9643009ED6E900768AEA63
:1013C00006060B9689EA070728EA05067E400B9F6A
:1013D0000A9624EA0206774021EA0406564023963C
:1013E00023EA0106744022EA0A020B972EEA080754
:1013F0006F403B942AEA0304534029EA0C066140FB
:1014000025EA0905109A22972F932CEA0E07069BCE
:10141000179187EA080785EA0C0186EA0E06534011
:101420003A9716962E91079A11991D9C1F9D2B9FF6
:1014300051404FEA037C4CEA111C090741EA1311A1
:101440001C9A089B5A40099B1605634046EA1336CE
:101450001B051E9C43EA1233019A6240029C4FEA2C
:10146000C208654048EA5578ED002A9C45EA527565
:10147000039A6240049C4FEAD24E7C404EEA443EBE
:10148000E40C44EA4234369A379F8BEA0209059A03
:101490007A404FEAD90747EA4277D20842EA4972CE
:1014A00025EA030989EA0109CDF8AC9024EA050987
:1014B00028EA060A89EA03098AEA0C0ACDF8449068
:1014C00023EA010322EA040989EA05055340CDF81D
:1014D000A8A02EEA080A8AEA060A1F9526EA0C0640
:1014E00021EA02051D930C9A039BCDF840A086EAE1
:1014F000070127EA0E0A53401C91049A0D998AEAC3
:1015000008085140CDF878802CEA07084FEA430CD0
:101510004CEAD17C490041EAD371189B88EA0E0E4F
:101520006C408BEA0302CDF8D8E03794059B199CF8
:10153000259D319F6340960146EA93669B01249C5A
:1015400043EA9263069A6240079C4FEA426865400C
:1015500048EAD5186D06309C45EAD215089A6240D3
:10156000099C4FEA022E7C404EEA146E2402329F00
:1015700044EA1264019A82EA0709339F029A7A4088
:101580004FEA894747EA9237920442EA993225EABC
:10159000030989EA0109CDF8649024EA050928EADB
:1015A000060A89EA03098AEA0C0ACDF8C49023EAFC
:1015B000010322EA040989EA05055340CDF860A039
:1015C0002EEA080A8AEA060A0D9526EA0C0621EA9E
:1015D00002053393129A089BCDF8C0A086EA070152
:1015E00027EA0E0A53403291099A13998AEA0808A9
:1015F0005140CDF830802CEA07084FEAC36C4CEA22
:10160000511CC90641EA5311149A019B6C405A407F
:101610002594029B159C160F634046EA031688EA40
:101620000E0E1B0F43EA0213CDF890E0039A209CA4
:10163000219D2D9F6240049C4FEA8228654048EA24
:101640009558AD0245EA92552C9A059C8BEA020208
:101650007C404FEAC23E4EEA544EE403389F44EACF
:101660005244069A82EA0709399F079A7A404FEA5C
:10167000192747EA0267120A42EA096225EA0309C2
:1016800089EA010928EA060ACDF8E49024EA050966
:101690008AEA0C0A89EA0309CDF8E0A0CDF8549053
:1016A0002EEA080A22EA040923EA01038AEA060A62
:1016B00089EA050526EA0C0653402D95219321EA77
:1016C00002050E9B059ACDF850A086EA07012091ED
:1016D0000F99269E8BEA03036C4013949D0882EABF
:1016E000010445EA8475A40844EA83741A9A069BA7
:1016F00083EA02011B9A079B53404A0A42EAC352FB
:101700005B0A27EA0E0A43EAC15308998AEA0808E5
:101710007140CDF8B080099E2CEA0708279F4FEA58
:10172000516C77404CEAC71C88EA0E0E7F0E47EAE0
:10173000C117CDF848E00199289EDDF8A4E071407A
:10174000029E4FEAD15886EA0E0648EA4628F60D70
:10175000DDF8D0E046EA4126039981EA0E09DDF87A
:10176000D4E0049981EA0E014FEA890E4EEA917E97
:10177000890041EA997127EA03092CEA020A89EAF9
:1017800004098AEA050ACDF89C9026EA0709CDF8F3
:1017900098A089EA030928EA0C0A8AEA020ACDF825
:1017A000D49022EA050221EA060923EA040389EA21
:1017B000070782EA0E024B401B970E9224EA0107AC
:1017C0002A9A0F930A9B1899CDF8D0A07E402996AB
:1017D00083EA02062B9A0B9B4E40199953404B40CB
:1017E0003899229A4E4039994B4026994E40279974
:1017F0002EEA080A4B4010998AEA0C0C82EA010989
:10180000CDF868C01199239A25EA0E0C8CEA080CD1
:10181000CDF8A0C082EA0108309A1E9989EA02092F
:10182000319A88EA0208149A89EA0209159A88EA24
:101830000208349A89EA0209359A88EA02083A9A33
:1018400082EA010C3B9A1F9982EA01070C9A0D99D2
:101850008CEA020C4F402C9A2D998CEA020C4F40D6
:101860001A9A1B998CEA020C4F40169A369982EA12
:101870000105179A379982EA010424991C9A4D4070
:1018800025994C4012994D4013994C4028994D4050
:1018900029994C40329982EA010E1D9A33995140A0
:1018A0002E9A8EEA020E2F9A5140209A8EEA020E4C
:1018B000219A51400E9A4FEA490B8EEA020E0F9A76
:1018C0004BEAD87B4FEA480A51404AEAD97A8BEA78
:1018D0000E024FEA4C0B01924BEAD77B8AEA0102D7
:1018E0004FEA470A02924AEADC7A8BEA060203923E
:1018F0008AEA03024FEA440A4AEAD57A04928AEA5B
:1019000008024FEA4E0848EAD1784900059241EAB8
:10191000DE7188EA0C02069281EA0702710041EA50
:10192000D3715B0043EAD6730792634081EA0502F4
:1019300008920993019A0A9B099F4FEA450B4BEACB
:10194000D47B8BEA090B83EA02090B9B029A059C64
:1019500083EA020A109B039A83EA0201049A119B0C
:101960000D0D53400C9A45EA03351B0D43EA013334
:1019700082EA0B010D9A4FEA5158544048EAC428B4
:10198000640D44EAC124129A069982EA0106139A68
:1019900007994FEA465E51404EEAD12E490541EA89
:1019A000D621089A0E9E56400F9A4FEA863C7A40FE
:1019B0004CEA924C920342EA9642009ED6E90276A5
:1019C0008AEA06060B9689EA070728EA05067E409A
:1019D0000B9F0A9624EA0306774021EA04065E403C
:1019E0000D9622EA0106744023EA0A0353400B973E
:1019F0000F942EEA08072AEA02046F40069A13930E
:101A0000614025EA0905169B119185EA0C015340B6
:101A10001291179A07990C9729EA0C062CEA0E07DF
:101A200051404FEA037C4CEA111C090741EA1311AB
:101A3000089A1C9B099C029D5A401D9B86EA0E0633
:101A400063401096160546EA13361B0543EA123327
:101A5000019C189A6240199C87EA080765404FEA82
:101A6000C20848EA5578ED0045EA5275039C149A7D
:101A70000E976240049F159C4FEAD24E7C404EEA7E
:101A8000443EE40C44EA42341A9A82EA0B091B9A57
:101A9000059F7A404FEAD90747EA4277D20842EADF
:101AA000497225EA030989EA0109CDF8549024EA2C
:101AB000050928EA060A89EA03098AEA0C0ACDF828
:101AC0005C9023EA010322EA040989EA05055340F0
:101AD000CDF850A02EEA080A8AEA060A199526EAE5
:101AE0000C0621EA02051D93039A229BCDF858A00B
:101AF00086EA070127EA0E0A53401C91239A0499AB
:101B00008AEA08085140CDF860802CEA07084FEABD
:101B1000430C4CEAD17C490041EAD3711E9B099FDA
:101B20006C4083EA0B021B941F9B059C079D63403E
:101B3000960146EA93669B0143EA9263069C249AC7
:101B40006240259C88EA0E0E65404FEA426848EAEA
:101B5000D5186D0645EAD215089C209ACDF868E0A4
:101B60006240219C4FEA022E7C404EEA146E240211
:101B700044EA1264019F269A82EA0709029F279A83
:101B80007A404FEA894747EA9237920442EA99320B
:101B900028EA060A25EA03098AEA0C0A89EA010901
:101BA000CDF878A0CDF87C9024EA050989EA0309EC
:101BB000CDF8849023EA010322EA04092EEA080AF8
:101BC00089EA050553408AEA060A239526EA0C06A7
:101BD00021EA02052793089A2E9BCDF880A086EA79
:101BE000070127EA0E0A534026912F9A09998AEA9B
:101BF00008085140CDF888802CEA07084FEAC36CEA
:101C00004CEA511CC90641EA5311019A2A9B059FCF
:101C10006C405A4025942B9B029C049D6340160FF8
:101C200046EA03161B0F43EA0213039C309A6240F4
:101C3000319C88EA0E0E65404FEA822848EA9558A2
:101C4000AD0245EA92552C9A2D9CCDF890E082EA9F
:101C50000B027C404FEAC23E4EEA544EE40344EA93
:101C60005244069F289A82EA0709299A079F7A40D8
:101C70004FEA192747EA0267120A42EA096228EA8C
:101C8000060A25EA03098AEA0C0A89EA0109CDF85D
:101C9000A0A0CDF8A4902EEA080A24EA05098AEA51
:101CA000060A89EA0309CDF8A8A0CDF8AC9027EA86
:101CB0000E0A22EA040923EA01038AEA080889EAEB
:101CC000050526EA0C065340CDF8B0802D9521EA93
:101CD0000205319386EA07013A9B3B9A30910599B8
:101CE00083EA0B032CEA070851404FEA930C4CEAB5
:101CF000817C890841EA8371069A369B029F6C4079
:101D00005A402F94379B079C099D6340560A46EA28
:101D1000C3565B0A43EAC253089C329A6240339C22
:101D200088EA0E0E65404FEA526848EAC5186D0E03
:101D300045EAC215019C389ACDF8B8E06240399C5A
:101D40004FEAD25E7C404EEA442EE40D44EA42243F
:101D5000039F349A82EA0709359A049F7A404FEA32
:101D6000890747EA9277920042EA997228EA060ABE
:101D700025EA030989EA01098AEA0C0ACDF8C8A014
:101D8000CDF8CC902EEA080A24EA05098AEA060A68
:101D900089EA0309CDF8D0A0CDF8D49027EA0E0A3D
:101DA00022EA04098AEA080889EA0505CDF8D880FC
:101DB00037952CEA070821EA020526EA0C0623EAF1
:101DC000010388EA0E0E86EA07016C403A91CDF8CD
:101DD000E0E039945340009A1032009200993C4A56
:101DE0008A427FF4FFA90A9A02600B9A42600C9A19
:101DF00082600D9AC2600E9A02610F9A4261109A37
:101E00008261119AC261129A0262139A4262149A12
:101E10008262159AC262169A0263179A4263189AEE
:101E20008263199AC2631A9A02641B9A42641C9ACA
:101E300082641D9AC2641E9A02651F9A4265209AA6
:101E40008265219AC265229A0266239A4266249A82
:101E50008266259AC266269A0267279A4267289A5E
:101E60008267299AC2672A9AC0F880202B9AC0F804
:101E700084202C9AC0F888202D9AC0F88C202E9AA5
:101E8000C0F890202F9AC0F89420309AC0F898207B
:101E9000319AC0F89C20329AC0F8A020339AC0F83A
:101EA000A420349AC0F8A820359AC0F8AC20369AFD
:101EB000C0F8B020379AC0F8B4203A9AC0F8B8E019
:101EC000C0F8BC40C0E930233DB0BDE8F08F00BF92
:101ED000282F4000F0B58BB006460C4601AF01F14B
:101EE000200C206861683D4603C5083464452F46D0
:101EF000F7D18DF824208DF825302222024B01A93C
:101F0000304698470BB0F0BD3D0F4000F0B58BB0A8
:101F100005460E4601AF02F1200C106851683C46A0
:101F200003C4083262452746F7D18DF82430044CAB
:101F3000212301AA31462846A0470BB0F0BD00BFBF
:101F40007D0F400070B50646074B0C461546984776
:101F5000B6F900306D425C402C4063403380BDE8F0
:101F60007040024B184700BFC1264000A126400028
:101F7000F0B500250B6803F055325B0803F05533CC
:101F8000134400EB45070224A21E23FA04F623FAA9
:101F900002F202F0030206F003060434921B222C24
:101FA00027F8022BF0D10835B5F5807F01F1040147
:101FB000E0D1F0BD004B1847711F4000004B18479F
:101FC000711F40002DE9F04F91B04D4C01904D48EC
:101FD00004A9002354F8045B50F8042F01336A402D
:101FE0000C2B41F8042BF5D1474D019CDDF83C90BA
:101FF0000FCD0FC495E80F0084E80F00019ADDE9CA
:102000000407DDE906BE1C3200230392DFF8FCA0C2
:102010000E9ADDE9088CDDE90A65DDE90C419A4498
:10202000CDF808A0A3F1C343A3F59103A3F247633E
:1020300089F0030A9A448AEAF96A504480F0010A56
:102040009A448AEA706A574487F0040A9A448AEAF2
:10205000F75AD3448BF0010A9A448AEAFB4AD644E1
:102060008EF0050A9A448AEAFE6AD04488F0090A8A
:102070009A448AEA786AD4448CF0020A9A448AEA3A
:10208000FC5A564486F0060A9A448AEAF64A5544AF
:1020900085F0050A9A448AEAF56A544484F0030AF2
:1020A0009A448AEA746A514481F0050A9A448AEA99
:1020B000F15A524482F0080A9A448AEAF24AD14418
:1020C000DDF808A05345ADD1019BCDE9088CCDE9E1
:1020D0000A65CDE90E29CDE90C41043B07A953F867
:1020E000042F51F8044F62401A60039A9A42F6D1C5
:1020F000029A0749054B8A4288D111B0BDE8F08F9A
:10210000640E0020542F4000882F4000909B77E3FE
:102110002037EFC62DE9F041214C25686B1C88B0B3
:10212000236053B963680133636033B9A368013333
:10213000A36013B9E3680133E360DFF868801A4EE7
:102140006846C0476F4642463B4603CB716008A9CC
:102150008B4230601F4606F10806F5D10235256036
:1021600055B963680133636033B9A3680133A36071
:1021700013B9E3680133E36068460C4C90476B4643
:102180001A4603CA616008A98A422060134604F116
:102190000804F5D1064B40221A6008B0BDE8F08172
:1021A000640E0020C51F4000240E0020440E0020B5
:1021B000200E0020F8B5094E094F04464518AC42E0
:1021C00001D10020F8BD336803B9B8473368054A28
:1021D000013B3360D35C04F8013BF0E7200E0020A4
:1021E00015214000240E002000EB400303EBC30345
:1021F00003EBC30300EB03234FF2FF2213FB0200A8
:10220000001470474FF0007244F6BF6310FB0323C5
:102210009B1603EB430203EB820203EB0223C01A7B
:1022200000B2704710B50246014400208A4200D136
:1022300010BD12F8013B0824584043B2002BBABF2E
:102240005B0083F04D034300013CD8B2F5D1EDE7CC
:1022500030B50022044601238B4201D3002030BD5B
:1022600014F8015F15B99D1A85541A460133DBB283
:10227000F2E730B504780025024605702046884212
:1022800000D204B930BD145C15540319D8B2F6E776
:10229000F8B50C4D2B681F2B04DD61200A4B9847C5
:1022A0000120F8BDF82901D96220F7E7074F0C2477
:1022B0005C433E1901333855C6E901122B600020FA
:1022C000EFE700BF1410002045264000940E0020C8
:1022D00010B5064C064A00217620A0472346054A41
:1022E000BDE8104000217720184700BF9122400030
:1022F0006523400085234000F0B50D46C1B01AB3F8
:1023000000238DF802106C468DF800308DF8010026
:102310000DF102019D4219DCA91C0F4BC9B20DF150
:102320000100984763192F1D691DD87000260B4BBB
:10233000E655C9B2204698473546094E14F8010BB8
:102340000135B047AF42F9DA41B0F0BDD05C01F8D9
:10235000010F0133DEE700BF25224000512240007B
:102360004526400007B503238DF807300DF107021D
:10237000034B012172209847002003B05DF804FB55
:10238000F922400030B50D4B0D48197889B0002274
:102390000C24D3B28B4202F1010206DB094B6A46E0
:1023A00072209847002009B030BD03F12005634337
:1023B0006D44C35C05F8203CEBE700BF141000201F
:1023C000940E0020F92240002DE9F047C0B000240F
:1023D00001ADDFF8E0908DF803402F46C84705F8BF
:1023E000010B58B905208DF80300334B0DF10302A2
:1023F00001216520984740B0BDE8F0870134042CE6
:10240000ECD12146DFF8B4803846C0472C4B9DF80C
:1024100005101A6805462B4800234FF00C0CDEB25D
:10242000964202DB08D10120DDE70CFB06FE0133FA
:1024300010F80EE08E45F2D19DF807300533AB421F
:1024400006DA0420CFE7C84738550028CAD001343F
:102450009DF807300433A342F5DAC84704F58073CA
:102460000DEB030A0AF8FC0C0028EAD1C5F10103C0
:1024700053FA84F1C9B25FFA84F97819C047A9F117
:102480000201114BC9B20DF1050098471AF8FD3C45
:1024900083420DD10B4B9DF806109DF805000C22D0
:1024A00002FB06339DF807209C6802ABA0479AE721
:1024B000022098E761264000F92240007322400084
:1024C00014100020940E002025224000FEE700009A
:1024D00008B5154A154B9A4215D915498B420DD3AB
:1024E00000BF144B144A002193421AD3134B144AD1
:1024F0009A60144B9847144B9847FEE752F8040B28
:1025000043F8040BEAE7EBD20949101FCB1A034446
:10251000C2F10402D342E3D053F8040941F8040D98
:10252000F8E743F8041BDFE7D02F4000000000204D
:1025300004000020040000201810002000ED00E03E
:10254000000040003D2B4000E1014000184B4FF4DB
:10255000004270B500205A65164C174D174EA04723
:102560000120A0470520A047154B0020984715489B
:10257000A847154B00209847144B3E21012098474F
:10258000B0470028FCD0124B00209847114B9847C9
:102590001148A847114A136823F0806313600B2089
:1025A000A047BDE870400E4B4FF060510F20184718
:1025B00000140E40E52A4000A1294000D52A400021
:1025C000212B4000000E2707052A4000892A4000E1
:1025D000452A4000D528400010757000000A0E40C2
:1025E000312840001FB50F4B0F4C4FF46132CDE93D
:1025F00001324FF40063039308200C4B984701A964
:102600000B4B0C4898470B480B4B98470B4B094812
:1026100098470B490920A0474FF000610A20A047C6
:1026200004B010BD90AD710031284000E52A400093
:10263000E126400000060E401B2740001527400001
:102640000100000838B5044D044604482146A84757
:102650000028FAD138BD00BF2127400000060E40F7
:1026600013B5054C05480DF10701A0470028F9D125
:102670009DF8070002B010BD2F27400000060E4055
:1026800010B5054B0B209847BDE81040034B4FF0A9
:1026900040510720184700BFE52A4000312840007C
:1026A00010B5054B07209847BDE81040034B4FF08D
:1026B00040510720184700BF17284000312840002C
:1026C00010B5054B07209847BDE81040034B4FF06D
:1026D00060510720184700BFFF2740003128400005
:1026E000AC2310B50360D1E90032B3FBF2F31B0950
:1026F0005C1E4FF6FE7294420AD803628B684360F8
:1027000040F20223C0F8203150230360002010BDA6
:102710000120FCE7402303607047102303607047EB
:1027200043699B0746BFC161002001207047436990
:10273000DB0743BF83690B70002001207047B1F1B4
:10274000C05F426426D007D8B1F1006F11D0B1F15B
:10275000805F1CD0C9B97047B1F1005F23D014D39A
:10276000B1F1405F12D021F08051B1F1205F0CD166
:102770007047016F036F0B4023EA02030367416F49
:10278000436F0B4023EA0203436742607047036FC5
:102790001343F3E7016F036F0B4023EA0203036760
:1027A000436F1343F0E7036F1343F8E7D307416424
:1027B0004CBF4166016612F00A0F07D09307016211
:1027C00008D4130748BFC0F8841000E0416241619B
:1027D00001607047C0F88010F9E710B5029C4164B1
:1027E0003CB141663BB101653AB1016301610160F1
:1027F00010BD0166F6E74165F6E74163F6E7430978
:1028000003F5001303F207735B0200F01F000122BF
:1028100082401A637047430903F5001303F20773FC
:102820005B0200F01F00012282405A6370470000E3
:1028300037B5044640090D4600F5001001F0F0419F
:1028400000F20770B1F1005F4FEA40201FD00BD8B3
:10285000B1F1805F1BD0B1F1C05F18D0B1F1006F52
:1028600015D0002003B030BD05F0E043B3F1405F68
:1028700017D0B1F1205FF4D104F01F040121124BF5
:102880002A46A140984700E002660120EAE704F0EA
:102890001F040122A2400D4B9847EC07F4D5426675
:1028A000F3E705F0605202F148414A4205F00103A6
:1028B00004F01F044A4101210093A140C5F38003A5
:1028C000034CA047E1E700BFAD2740003F27400091
:1028D000DB27400010B52C4A2C4B116B01F0030193
:1028E00001292AD0023901291DD8116ACC0148D406
:1028F00027491960116A01F0700110293ED0202982
:102900003FD0106B196800F0030002280BBF946AD7
:10291000D46A906AD06AC4F30A4404FB0111C0B2BD
:10292000B1FBF0F107E01B49496A08064CBF4FF4C0
:1029300000414FF4FA4119600DE0116AC90101D557
:102940001549F8E712491960116A01F07001102960
:1029500012D02029F4D0106B196800F07000702894
:102960001BBF126BC2F30212032221FA02F208BF4C
:10297000B1FBF2F21A6010BD0849DCE707491960A3
:10298000BFE70549FBE700BF00040E400000002040
:1029900000093D0000140E40001BB70000127A0031
:1029A0000E4B98420E4B03D84FF080621A6070476E
:1029B0000C4A904201D20C4AF8E70C4A904201D2EC
:1029C0000B4AF3E70B4A904201D80B4AEEE70B4A59
:1029D00090428CBF0A4A4FF00422E7E7FF2C3101F6
:1029E000000A0E40005A62020001000400879303AF
:1029F00000020004FFB3C40400030004FFE0F50577
:102A0000000500040E4B1A6B22F003021A6340F615
:102A10000102996E09070BD51A6B22F07002104360
:102A2000186340F60102996E090705D5002070472A
:102A3000013AEED101207047013AF4D1FAE700BF24
:102A400000040E400F4B1A6B22F0030242F0010209
:102A50001A6340F60102996E09070BD51A6B22F032
:102A600070021043186340F60102996E090705D5FC
:102A700000207047013AEED101207047013AF4D1AD
:102A8000FAE700BF00040E400F4A30B1136A0F4945
:102A900019400F4B0B4313627047106A0B0220F46E
:102AA0005C119BB221F003010B4343F45C1343F030
:102AB00001031362936EDB07FCD5136A43F09B732B
:102AC00043F48033E7E700BF00040E40FCFFC8FE7C
:102AD00002003701024B986E00F48030704700BF4F
:102AE00000040E40222816D81F280C4A4FF001037C
:102AF00007D89169834033EA010118BF13610020B0
:102B00007047D2F808112038834033EA0101F6D02B
:102B1000C2F80031F3E70120704700BF00040E4007
:102B2000034B18B1034AC3F8E4207047024AFAE79E
:102B300000040E4001434D5000434D5070B50F4B03
:102B40000F4DAB42A3EB050607D0B610002455F895
:102B5000043B01349847A642F9D800F025FA094D04
:102B6000094B5E1BAB424FEAA60606D0002455F87F
:102B7000043B01349847A642F9D870BDB42F4000F9
:102B8000B42F4000B42F4000B82F4000830730B569
:102B900047D0541E002A3ED0CAB2034601E0013C91
:102BA00039D303F8012B9D07F9D1032C2CD9CDB2D1
:102BB00005EB05250F2C05EB054535D9A4F11002D1
:102BC00022F00F0C03F1100EE6444FEA121C1A46D5
:102BD000C2E90055C2E9025510327245F8D10CF134
:102BE000010214F00C0F03EB021204F00F0C13D0CF
:102BF000ACF1040323F003030433134442F8045BF1
:102C00009342FBD10CF003042CB1C9B21C4403F86D
:102C1000011BA342FBD130BD64461346002CF4D106
:102C2000F9E703461446C0E71A46A446E0E700BFAA
:102C3000844641EA000313F003036DD1403A41D3C7
:102C400051F8043B40F8043B51F8043B40F8043B86
:102C500051F8043B40F8043B51F8043B40F8043B76
:102C600051F8043B40F8043B51F8043B40F8043B66
:102C700051F8043B40F8043B51F8043B40F8043B56
:102C800051F8043B40F8043B51F8043B40F8043B46
:102C900051F8043B40F8043B51F8043B40F8043B36
:102CA00051F8043B40F8043B51F8043B40F8043B26
:102CB00051F8043B40F8043B51F8043B40F8043B16
:102CC000403ABDD2303211D351F8043B40F8043BB6
:102CD00051F8043B40F8043B51F8043B40F8043BF6
:102CE00051F8043B40F8043B103AEDD20C3205D3C6
:102CF00051F8043B40F8043B043AF9D2043208D0BE
:102D0000D2071CBF11F8013B00F8013B01D30B882F
:102D100003806046704700BF082A13D38B078DD00D
:102D200010F003038AD0C3F10403D21ADB071CBFDF
:102D300011F8013B00F8013B80D331F8023B20F849
:102D4000023B7BE7043AD9D3013A11F8013B00F882
:102D5000013BF9D20B7803704B7843708B7883700A
:102D600060467047ECFB0AFD99FE13FAD5058E0507
:102D70001F01CA0055FF6E022906B600C2034EFBB2
:102D80003EFABC053D02D3FA08017F01C3FCB2053F
:102D9000BEF97EFF57FDF903DC026002FAF99B01E0
:102DA00033FFDDF9C7048C02D8FDF703F3FAD3052E
:102DB000E6FEF8F90402F8FFC0FE66FDAEF976FB08
:102DC0007E00BD05ABFCA6FFF1FE3E036B0073FA6F
:102DD00009FF49FC72FEC1031CFA2BFDC001D7FBA1
:102DE000A50205FBB1FBAE012B024B031DFB6703E4
:102DF0000E066900A6014B02B10015FFDDFE34FE90
:102E0000260675060AFF0A0387046DFFF7FCCB054B
:102E1000A6FD5F04CAF9840298FC5D01A201490184
:102E200064FFB5FF310349045B0262022A05FBFA25
:102E300047FA800141FB78FFC204C9FA96FCDC0026
:102E40005DFB85F95FFB06FA02FB1A031AFAAAFC7E
:102E50009AFCDE0194FFCCFEE403DF03BE034CFAD0
:102E6000F2055C0600000000010000000000000008
:102E700082800000000000008A80000000000080C6
:102E800000800080000000808B80000000000000B7
:102E900001000080000000008180008000000080B0
:102EA00009800000000000808A000000000000008F
:102EB0008800000000000000098000800000000081
:102EC0000A000080000000008B80008000000000ED
:102ED0008B0000000000008089800000000000805E
:102EE00003800000000000800280000000000080DD
:102EF00080000000000000800A8000000000000048
:102F00000A000080000000808180008000000080B6
:102F100080800000000000800100008000000000B0
:102F20000880008000000080030000000100000015
:102F3000040000000100000005000000090000007E
:102F40000200000006000000050000000300000071
:102F50000500000008000000090000000700000054
:102F60000900000003000000020000000300000050
:102F7000080000000400000006000000020000003D
:102F80000600000004000000030000000300000031
:102F9000080000000300000002000000070000001D
:102FA0000900000005000000F8B500BFF8BC08BC2F
:102FB0009E46704735014000F8B500BFF8BC08BC1C
:082FC0009E4670470D01400020
:082FC80068FCFF7F010000001E
:042FD00000093D00B7
:04000005004024D1C2
:00000001FF
