:020000040040BA
:10000000481E0020450740004107400041074000CE
:100010004107400041074000410740000000000048
:100020000000000000000000000000004107400048
:100030004107400000000000410740004107400028
:100040004107400041074000410740004107400090
:100050004107400041074000410740000000000008
:1000600041074000410740000000000041074000F8
:1000700041074000000000004107400041074000E8
:100080000000000000000000410740004107400060
:100090004107400041074000410740004107400040
:1000A0004107400041074000000000000000000040
:1000B00000000000410740004107400041074000A8
:1000C0004107400041074000410740000348044BFE
:1000D000834202D0034B03B1184770475C0F4000C6
:1000E0005C0F4000000000000548064B1B1AD90FAA
:1000F00001EBA301491002D0034B03B1184770472D
:100100005C0F40005C0F40000000000010B5064C82
:10011000237843B9FFF7DAFF044B13B10448AFF378
:1001200000800123237010BD0800002000000000A3
:100130005C0F400008B5044B1BB104490448AFF301
:100140000080BDE80840CFE7000000000C00002060
:100150005C0F400008B50D4B188811FB00F39BB2F3
:10016000B3F5CC6F0FD21A18B2F5CC6FC8BFC3F578
:10017000CC60074AC8BF80B21A44C1B2054B6B209D
:100180009847002008BD0420FCE700BF00000020C5
:10019000640600206D05400008B50D4B188811FB62
:1001A00000F39BB2B3F5487F0FD21A18B2F5487F1F
:1001B000C8BFC3F54870074AC8BF80B21A44C1B26D
:1001C000054B70209847002008BD0420FCE700BFC5
:1001D00000000020440300206D05400008B50D4BD1
:1001E000188811FB00F39BB2B3F5407F0FD21A18A9
:1001F000B2F5407FC8BFC3F54070074AC8BF80B2A0
:100200001A44C1B2054B63209847002008BD042062
:10021000FCE700BF00000020440000206D05400006
:1002200008B50C4B188811FB00F39BB21F2B0ED89E
:100230001A18202AC8BFC3F12000074AC8BF80B2DD
:100240001A44C1B2054B73209847002008BD042012
:10025000FCE700BF00000020240000206D054000E6
:1002600008B5084619460D4BB3F90030584380B223
:10027000B0F5CC6F10D28318B3F5CC6F084BC4BF68
:10028000C0F5CC6292B21844064B9847064B98478B
:10029000064B9847002008BD0420FCE70000002022
:1002A00064060020010E4000350940001509400099
:1002B00008B5084619460B4BB3F90030584380B2D5
:1002C000B0F5487F0CD28318B3F5487F064BC4BF06
:1002D000C0F5487292B21844044B9847002008BDFC
:1002E0000420FCE70000002044030020010E400031
:1002F00008B5084619460B4BB3F90030584380B295
:10030000B0F5407F0CD28318B3F5407F064BC4BFD5
:10031000C0F5407292B21844044B9847002008BDC3
:100320000420FCE70000002044000020010E4000F3
:1003300008B5084619460A4BB3F90030584380B255
:100340001F280BD88318202B064BC4BFC0F12002F6
:1003500092B21844044B9847002008BD0420FCE7E3
:100360000000002024000020010E4000022A07D1D6
:100370001B885A1EF82A03D8024A002013807047AF
:10038000042070470000002010B5064B0446984733
:10039000054B9847054B22461021722098470020B4
:1003A00010BD00BF35094000150940006D05400033
:1003B00038B511F00204154602D00F2A11D91024C5
:1003C000CA0709D51034E4B2A5420AD3A4F1100239
:1003D00098181021044B9847601B18BF012080001B
:1003E00038BD0420FCE700BF8903400008B51A4B64
:1003F0001A4C98471A4B98471A4B98471A4B9847EC
:100400001A4A10210120A047194AF8210220A047CA
:10041000184A00210320A047174A02210420A047C0
:10042000164AF8210520A047154A00210620A047BA
:10043000144AF8210720A047134A00210820A047AA
:10044000124AF8210920A047114A00210A20A0479A
:10045000104CA047FDE700BFC10740000505400064
:1004600059084000F508400045054000B103400030
:1004700061024000550140006D034000B1024000A0
:1004800099014000F1024000DD01400031034000CD
:10049000210240003D06400010B502460144002004
:1004A0008A4200D110BD12F8013B0824584043B2E3
:1004B000002BBABF5B0083F04D034300013CD8B270
:1004C000F5D1EDE730B50022044601238B4201D37C
:1004D000002030BD14F8015F15B99D1A85541A46E5
:1004E0000133DBB2F2E730B504780025024605702F
:1004F0002046884200D204B930BD145C155403195B
:10050000D8B2F6E7F8B50C4D2B681F2B04DD61203F
:100510000A4B98470120F8BDF82901D96220F7E776
:10052000074F0C245C433E1901333855C6E90112CC
:100530002B600020EFE700BF440E0020B908400008
:10054000C40C002010B5064C064A00217620A047B6
:100550002346054ABDE8104000217720184700BF18
:1005600005054000D9054000F9054000F0B50D46ED
:10057000C1B01AB300238DF802106C468DF800301C
:100580008DF801000DF102019D4219DCA91C0F4BF1
:10059000C9B20DF10100984763192F1D691DD8706C
:1005A00000260B4BE655C9B2204698473546094E02
:1005B00014F8010B0135B047AF42F9DA41B0F0BD94
:1005C000D05C01F8010F0133DEE700BF9904400061
:1005D000C5044000B908400007B503238DF8073073
:1005E0000DF10702034B012172209847002003B050
:1005F0005DF804FB6D05400030B50D4B0D481978D2
:1006000089B000220C24D3B28B4202F1010206DB36
:10061000094B6A4672209847002009B030BD03F1AB
:10062000200563436D44C35C05F8203CEBE700BF45
:10063000440E0020C40C00206D0540002DE9F04759
:10064000C0B0002401ADDFF8E0908DF803402F46E4
:10065000C84705F8010B58B905208DF80300334B46
:100660000DF1030201216520984740B0BDE8F087F5
:100670000134042CECD12146DFF8B4803846C04761
:100680002C4B9DF805101A6805462B4800234FF0A7
:100690000C0CDEB2964202DB08D10120DDE70CFB38
:1006A00006FE013310F80EE08E45F2D19DF80730BA
:1006B0000533AB4206DA0420CFE7C8473855002897
:1006C000CAD001349DF807300433A342F5DAC84795
:1006D00004F580730DEB030A0AF8FC0C0028EAD13C
:1006E000C5F1010353FA84F1C9B25FFA84F97819AC
:1006F000C047A9F10201114BC9B20DF1050098479D
:100700001AF8FD3C83420DD10B4B9DF806109DF865
:1007100005000C2202FB06339DF807209C6802AB03
:10072000A0479AE7022098E7D50840006D054000F1
:10073000E7044000440E0020C40C0020990440004F
:10074000FEE7000008B5154A154B9A4215D9154920
:100750008B420DD300BF144B144A002193421AD38D
:10076000134B144A9A60144B9847144B9847FEE772
:1007700052F8040B43F8040BEAE7EBD20949101FC7
:10078000CB1A0344C2F10402D342E3D053F8040964
:1007900041F8040DF8E743F8041BDFE75C0F400065
:1007A000000000200800002008000020480E002063
:1007B00000ED00E000004000B10D4000ED034000FE
:1007C000184B4FF4004270B500205A65164C174D77
:1007D000174EA0470120A0470520A047154B002039
:1007E00098471548A847154B00209847144B3E21C1
:1007F00001209847B0470028FCD0124B00209847B2
:10080000114B98471148A847114A136823F0806399
:1008100013600B20A047BDE870400E4B4FF06051B5
:100820000F20184700140E40590D4000150C4000D1
:10083000490D4000950D4000000E2707790C40003F
:10084000FD0C4000B90C4000490B400010757000D1
:10085000000A0E40A50A40001FB50F4B0F4C4FF485
:100860006132CDE901324FF40063039308200C4B51
:10087000984701A90B4B0C4898470B480B4B9847DE
:100880000B4B094898470B490920A0474FF00061DE
:100890000A20A04704B010BD90AD7100A50A400029
:1008A000590D40005509400000060E408F094000D8
:1008B000890940000100000838B5044D0446044889
:1008C0002146A8470028FAD138BD00BF950940004D
:1008D00000060E4013B5054C05480DF10701A04771
:1008E0000028F9D19DF8070002B010BDA30940000F
:1008F00000060E4010B5054B0B209847BDE8104090
:10090000034B4FF040510720184700BF590D4000DE
:10091000A50A400010B5054B07209847BDE81040D8
:10092000034B4FF040510720184700BF8B0A40008F
:10093000A50A400010B5054B07209847BDE81040B8
:10094000034B4FF060510720184700BF730A400067
:10095000A50A4000AC2310B50360D1E90032B3FB17
:10096000F2F31B095C1E4FF6FE7294420AD8036232
:100970008B68436040F20223C0F8203150230360AB
:10098000002010BD0120FCE74023036070471023C6
:100990000360704743699B0746BFC1610020012087
:1009A00070474369DB0743BF83690B700020012058
:1009B0007047B1F1C05F426426D007D8B1F1006F33
:1009C00011D0B1F1805F1CD0C9B97047B1F1005F9F
:1009D00023D014D3B1F1405F12D021F08051B1F196
:1009E000205F0CD17047016F036F0B4023EA0203B5
:1009F0000367416F436F0B4023EA02034367426082
:100A00007047036F1343F3E7016F036F0B4023EA53
:100A100002030367436F1343F0E7036F1343F8E7E1
:100A2000D30741644CBF4166016612F00A0F07D03C
:100A30009307016208D4130748BFC0F8841000E090
:100A40004162416101607047C0F88010F9E710B55C
:100A5000029C41643CB141663BB101653AB101631E
:100A60000161016010BD0166F6E74165F6E741638B
:100A7000F6E7430903F5001303F207735B0200F086
:100A80001F00012282401A637047430903F50013D7
:100A900003F207735B0200F01F00012282405A63D9
:100AA0007047000037B5044640090D4600F50010B8
:100AB00001F0F04100F20770B1F1005F4FEA402011
:100AC0001FD00BD8B1F1805F1BD0B1F1C05F18D03F
:100AD000B1F1006F15D0002003B030BD05F0E04348
:100AE000B3F1405F17D0B1F1205FF4D104F01F04DF
:100AF0000121124B2A46A140984700E002660120DE
:100B0000EAE704F01F040122A2400D4B9847EC07CE
:100B1000F4D54266F3E705F0605202F148414A42DB
:100B200005F0010304F01F044A4101210093A14094
:100B3000C5F38003034CA047E1E700BF210A400052
:100B4000B30940004F0A400010B52C4A2C4B116BE2
:100B500001F0030101292AD0023901291DD8116AA7
:100B6000CC0148D427491960116A01F0700110299D
:100B70003ED020293FD0106B196800F003000228F6
:100B80000BBF946AD46A906AD06AC4F30A4404FB27
:100B90000111C0B2B1FBF0F107E01B49496A080638
:100BA0004CBF4FF400414FF4FA4119600DE0116A57
:100BB000C90101D51549F8E712491960116A01F018
:100BC0007001102912D02029F4D0106B196800F0A0
:100BD000700070281BBF126BC2F30212032221FAAD
:100BE00002F208BFB1FBF2F21A6010BD0849DCE75F
:100BF00007491960BFE70549FBE700BF00040E4045
:100C00000400002000093D0000140E40001BB70046
:100C100000127A000E4B98420E4B03D84FF08062C0
:100C20001A6070470C4A904201D20C4AF8E70C4A0D
:100C3000904201D20B4AF3E70B4A904201D80B4A8B
:100C4000EEE70B4A90428CBF0A4A4FF00422E7E7D6
:100C5000FF2C3101000A0E40005A6202000100041C
:100C60000087930300020004FFB3C40400030004E0
:100C7000FFE0F505000500040E4B1A6B22F003029D
:100C80001A6340F60102996E09070BD51A6B22F020
:100C900070021043186340F60102996E090705D5EA
:100CA00000207047013AEED101207047013AF4D19B
:100CB000FAE700BF00040E400F4B1A6B22F003024C
:100CC00042F001021A6340F60102996E09070BD542
:100CD0001A6B22F070021043186340F60102996EFD
:100CE000090705D500207047013AEED10120704771
:100CF000013AF4D1FAE700BF00040E400F4A30B1C8
:100D0000136A0F4919400F4B0B4313627047106A67
:100D10000B0220F45C119BB221F003010B4343F45E
:100D20005C1343F001031362936EDB07FCD5136A77
:100D300043F09B7343F48033E7E700BF00040E40A9
:100D4000FCFFC8FE02003701024B986E00F48030B1
:100D5000704700BF00040E40222816D81F280C4AF6
:100D60004FF0010307D89169834033EA010118BFAE
:100D7000136100207047D2F808112038834033EA0D
:100D80000101F6D0C2F80031F3E70120704700BF3F
:100D900000040E40034B18B1034AC3F8E420704727
:100DA000024AFAE700040E4001434D5000434D5003
:100DB00070B50F4B0F4DAB42A3EB050607D0B61035
:100DC000002455F8043B01349847A642F9D800F0B6
:100DD000B1F8094D094B5E1BAB424FEAA60606D09F
:100DE000002455F8043B01349847A642F9D870BD59
:100DF000400F4000400F4000400F4000440F4000B3
:100E0000844641EA000313F003036DD1403A41D315
:100E100051F8043B40F8043B51F8043B40F8043BD4
:100E200051F8043B40F8043B51F8043B40F8043BC4
:100E300051F8043B40F8043B51F8043B40F8043BB4
:100E400051F8043B40F8043B51F8043B40F8043BA4
:100E500051F8043B40F8043B51F8043B40F8043B94
:100E600051F8043B40F8043B51F8043B40F8043B84
:100E700051F8043B40F8043B51F8043B40F8043B74
:100E800051F8043B40F8043B51F8043B40F8043B64
:100E9000403ABDD2303211D351F8043B40F8043B04
:100EA00051F8043B40F8043B51F8043B40F8043B44
:100EB00051F8043B40F8043B103AEDD20C3205D314
:100EC00051F8043B40F8043B043AF9D2043208D00C
:100ED000D2071CBF11F8013B00F8013B01D30B887E
:100EE00003806046704700BF082A13D38B078DD05C
:100EF00010F003038AD0C3F10403D21ADB071CBF2E
:100F000011F8013B00F8013B80D331F8023B20F897
:100F1000023B7BE7043AD9D3013A11F8013B00F8D0
:100F2000013BF9D20B7803704B7843708B78837058
:100F300060467047F8B500BFF8BC08BC9E467047D5
:100F400035014000F8B500BFF8BC08BC9E467047AC
:040F50000D0140004F
:080F5400ACFEFF7F010000006C
:080F5C00F800000000093D004F
:04000005004007456B
:00000001FF
